{
  "_format": "hh-sol-artifact-1",
  "contractName": "BondingCurve",
  "sourceName": "contracts/BondingCurve.sol",
  "abi": [
    {
      "inputs": [
        {
          "internalType": "address",
          "name": "_tokenFactory",
          "type": "address"
        },
        {
          "internalType": "address",
          "name": "_feeCollector",
          "type": "address"
        }
      ],
      "stateMutability": "nonpayable",
      "type": "constructor"
    },
    {
      "inputs": [],
      "name": "EnforcedPause",
      "type": "error"
    },
    {
      "inputs": [],
      "name": "ExpectedPause",
      "type": "error"
    },
    {
      "inputs": [
        {
          "internalType": "address",
          "name": "owner",
          "type": "address"
        }
      ],
      "name": "OwnableInvalidOwner",
      "type": "error"
    },
    {
      "inputs": [
        {
          "internalType": "address",
          "name": "account",
          "type": "address"
        }
      ],
      "name": "OwnableUnauthorizedAccount",
      "type": "error"
    },
    {
      "inputs": [],
      "name": "ReentrancyGuardReentrantCall",
      "type": "error"
    },
    {
      "anonymous": false,
      "inputs": [
        {
          "indexed": true,
          "internalType": "address",
          "name": "token",
          "type": "address"
        },
        {
          "indexed": false,
          "internalType": "uint256",
          "name": "amount",
          "type": "uint256"
        }
      ],
      "name": "FeeCollected",
      "type": "event"
    },
    {
      "anonymous": false,
      "inputs": [
        {
          "indexed": true,
          "internalType": "address",
          "name": "oldCollector",
          "type": "address"
        },
        {
          "indexed": true,
          "internalType": "address",
          "name": "newCollector",
          "type": "address"
        }
      ],
      "name": "FeeCollectorUpdated",
      "type": "event"
    },
    {
      "anonymous": false,
      "inputs": [
        {
          "indexed": true,
          "internalType": "address",
          "name": "token",
          "type": "address"
        },
        {
          "indexed": true,
          "internalType": "address",
          "name": "creator",
          "type": "address"
        },
        {
          "indexed": false,
          "internalType": "uint256",
          "name": "basePrice",
          "type": "uint256"
        },
        {
          "indexed": false,
          "internalType": "uint256",
          "name": "scaleFactor",
          "type": "uint256"
        }
      ],
      "name": "MarketCreated",
      "type": "event"
    },
    {
      "anonymous": false,
      "inputs": [
        {
          "indexed": true,
          "internalType": "address",
          "name": "token",
          "type": "address"
        }
      ],
      "name": "MarketDeactivated",
      "type": "event"
    },
    {
      "anonymous": false,
      "inputs": [
        {
          "indexed": true,
          "internalType": "address",
          "name": "previousOwner",
          "type": "address"
        },
        {
          "indexed": true,
          "internalType": "address",
          "name": "newOwner",
          "type": "address"
        }
      ],
      "name": "OwnershipTransferred",
      "type": "event"
    },
    {
      "anonymous": false,
      "inputs": [
        {
          "indexed": false,
          "internalType": "address",
          "name": "account",
          "type": "address"
        }
      ],
      "name": "Paused",
      "type": "event"
    },
    {
      "anonymous": false,
      "inputs": [
        {
          "indexed": true,
          "internalType": "address",
          "name": "buyer",
          "type": "address"
        },
        {
          "indexed": true,
          "internalType": "address",
          "name": "token",
          "type": "address"
        },
        {
          "indexed": false,
          "internalType": "uint256",
          "name": "tokenAmount",
          "type": "uint256"
        },
        {
          "indexed": false,
          "internalType": "uint256",
          "name": "ethAmount",
          "type": "uint256"
        },
        {
          "indexed": false,
          "internalType": "uint256",
          "name": "fee",
          "type": "uint256"
        },
        {
          "indexed": false,
          "internalType": "uint256",
          "name": "newPrice",
          "type": "uint256"
        }
      ],
      "name": "TokensPurchased",
      "type": "event"
    },
    {
      "anonymous": false,
      "inputs": [
        {
          "indexed": true,
          "internalType": "address",
          "name": "seller",
          "type": "address"
        },
        {
          "indexed": true,
          "internalType": "address",
          "name": "token",
          "type": "address"
        },
        {
          "indexed": false,
          "internalType": "uint256",
          "name": "tokenAmount",
          "type": "uint256"
        },
        {
          "indexed": false,
          "internalType": "uint256",
          "name": "ethAmount",
          "type": "uint256"
        },
        {
          "indexed": false,
          "internalType": "uint256",
          "name": "fee",
          "type": "uint256"
        },
        {
          "indexed": false,
          "internalType": "uint256",
          "name": "newPrice",
          "type": "uint256"
        }
      ],
      "name": "TokensSold",
      "type": "event"
    },
    {
      "anonymous": false,
      "inputs": [
        {
          "indexed": false,
          "internalType": "address",
          "name": "account",
          "type": "address"
        }
      ],
      "name": "Unpaused",
      "type": "event"
    },
    {
      "inputs": [],
      "name": "BASE_PRICE",
      "outputs": [
        {
          "internalType": "uint256",
          "name": "",
          "type": "uint256"
        }
      ],
      "stateMutability": "view",
      "type": "function"
    },
    {
      "inputs": [],
      "name": "FEE_DENOMINATOR",
      "outputs": [
        {
          "internalType": "uint256",
          "name": "",
          "type": "uint256"
        }
      ],
      "stateMutability": "view",
      "type": "function"
    },
    {
      "inputs": [],
      "name": "MAX_SLIPPAGE_PERCENT",
      "outputs": [
        {
          "internalType": "uint256",
          "name": "",
          "type": "uint256"
        }
      ],
      "stateMutability": "view",
      "type": "function"
    },
    {
      "inputs": [],
      "name": "SCALE_FACTOR",
      "outputs": [
        {
          "internalType": "uint256",
          "name": "",
          "type": "uint256"
        }
      ],
      "stateMutability": "view",
      "type": "function"
    },
    {
      "inputs": [],
      "name": "TRADE_FEE_PERCENT",
      "outputs": [
        {
          "internalType": "uint256",
          "name": "",
          "type": "uint256"
        }
      ],
      "stateMutability": "view",
      "type": "function"
    },
    {
      "inputs": [
        {
          "internalType": "address",
          "name": "token",
          "type": "address"
        },
        {
          "internalType": "uint256",
          "name": "minTokens",
          "type": "uint256"
        }
      ],
      "name": "buy",
      "outputs": [],
      "stateMutability": "payable",
      "type": "function"
    },
    {
      "inputs": [
        {
          "internalType": "address",
          "name": "token",
          "type": "address"
        },
        {
          "internalType": "uint256",
          "name": "amount",
          "type": "uint256"
        }
      ],
      "name": "calculateBuyCost",
      "outputs": [
        {
          "internalType": "uint256",
          "name": "",
          "type": "uint256"
        }
      ],
      "stateMutability": "view",
      "type": "function"
    },
    {
      "inputs": [
        {
          "internalType": "address",
          "name": "token",
          "type": "address"
        }
      ],
      "name": "calculatePrice",
      "outputs": [
        {
          "internalType": "uint256",
          "name": "",
          "type": "uint256"
        }
      ],
      "stateMutability": "view",
      "type": "function"
    },
    {
      "inputs": [
        {
          "internalType": "address",
          "name": "token",
          "type": "address"
        },
        {
          "internalType": "uint256",
          "name": "amount",
          "type": "uint256"
        }
      ],
      "name": "calculateSellReturn",
      "outputs": [
        {
          "internalType": "uint256",
          "name": "",
          "type": "uint256"
        }
      ],
      "stateMutability": "view",
      "type": "function"
    },
    {
      "inputs": [
        {
          "internalType": "address",
          "name": "token",
          "type": "address"
        }
      ],
      "name": "createMarket",
      "outputs": [],
      "stateMutability": "nonpayable",
      "type": "function"
    },
    {
      "inputs": [
        {
          "internalType": "address",
          "name": "token",
          "type": "address"
        }
      ],
      "name": "deactivateMarket",
      "outputs": [],
      "stateMutability": "nonpayable",
      "type": "function"
    },
    {
      "inputs": [],
      "name": "emergencyWithdraw",
      "outputs": [],
      "stateMutability": "nonpayable",
      "type": "function"
    },
    {
      "inputs": [],
      "name": "feeCollector",
      "outputs": [
        {
          "internalType": "address",
          "name": "",
          "type": "address"
        }
      ],
      "stateMutability": "view",
      "type": "function"
    },
    {
      "inputs": [
        {
          "internalType": "address",
          "name": "token",
          "type": "address"
        }
      ],
      "name": "getMarketInfo",
      "outputs": [
        {
          "internalType": "uint256",
          "name": "reserveBalance",
          "type": "uint256"
        },
        {
          "internalType": "uint256",
          "name": "supply",
          "type": "uint256"
        },
        {
          "internalType": "uint256",
          "name": "currentPrice",
          "type": "uint256"
        },
        {
          "internalType": "uint256",
          "name": "basePrice",
          "type": "uint256"
        },
        {
          "internalType": "bool",
          "name": "isActive",
          "type": "bool"
        },
        {
          "internalType": "address",
          "name": "creator",
          "type": "address"
        }
      ],
      "stateMutability": "view",
      "type": "function"
    },
    {
      "inputs": [
        {
          "internalType": "address",
          "name": "token",
          "type": "address"
        },
        {
          "internalType": "uint256",
          "name": "limit",
          "type": "uint256"
        }
      ],
      "name": "getTradeHistory",
      "outputs": [
        {
          "components": [
            {
              "internalType": "address",
              "name": "trader",
              "type": "address"
            },
            {
              "internalType": "address",
              "name": "token",
              "type": "address"
            },
            {
              "internalType": "bool",
              "name": "isBuy",
              "type": "bool"
            },
            {
              "internalType": "uint256",
              "name": "tokenAmount",
              "type": "uint256"
            },
            {
              "internalType": "uint256",
              "name": "ethAmount",
              "type": "uint256"
            },
            {
              "internalType": "uint256",
              "name": "price",
              "type": "uint256"
            },
            {
              "internalType": "uint256",
              "name": "timestamp",
              "type": "uint256"
            }
          ],
          "internalType": "struct BondingCurve.TradeInfo[]",
          "name": "",
          "type": "tuple[]"
        }
      ],
      "stateMutability": "view",
      "type": "function"
    },
    {
      "inputs": [
        {
          "internalType": "address",
          "name": "",
          "type": "address"
        }
      ],
      "name": "markets",
      "outputs": [
        {
          "internalType": "uint256",
          "name": "reserveBalance",
          "type": "uint256"
        },
        {
          "internalType": "uint256",
          "name": "supply",
          "type": "uint256"
        },
        {
          "internalType": "uint256",
          "name": "basePrice",
          "type": "uint256"
        },
        {
          "internalType": "uint256",
          "name": "scaleFactor",
          "type": "uint256"
        },
        {
          "internalType": "bool",
          "name": "isActive",
          "type": "bool"
        },
        {
          "internalType": "address",
          "name": "creator",
          "type": "address"
        }
      ],
      "stateMutability": "view",
      "type": "function"
    },
    {
      "inputs": [],
      "name": "owner",
      "outputs": [
        {
          "internalType": "address",
          "name": "",
          "type": "address"
        }
      ],
      "stateMutability": "view",
      "type": "function"
    },
    {
      "inputs": [],
      "name": "pause",
      "outputs": [],
      "stateMutability": "nonpayable",
      "type": "function"
    },
    {
      "inputs": [],
      "name": "paused",
      "outputs": [
        {
          "internalType": "bool",
          "name": "",
          "type": "bool"
        }
      ],
      "stateMutability": "view",
      "type": "function"
    },
    {
      "inputs": [],
      "name": "renounceOwnership",
      "outputs": [],
      "stateMutability": "nonpayable",
      "type": "function"
    },
    {
      "inputs": [
        {
          "internalType": "address",
          "name": "token",
          "type": "address"
        },
        {
          "internalType": "uint256",
          "name": "amount",
          "type": "uint256"
        },
        {
          "internalType": "uint256",
          "name": "minEth",
          "type": "uint256"
        }
      ],
      "name": "sell",
      "outputs": [],
      "stateMutability": "nonpayable",
      "type": "function"
    },
    {
      "inputs": [
        {
          "internalType": "address",
          "name": "_feeCollector",
          "type": "address"
        }
      ],
      "name": "setFeeCollector",
      "outputs": [],
      "stateMutability": "nonpayable",
      "type": "function"
    },
    {
      "inputs": [],
      "name": "tokenFactory",
      "outputs": [
        {
          "internalType": "contract TokenFactory",
          "name": "",
          "type": "address"
        }
      ],
      "stateMutability": "view",
      "type": "function"
    },
    {
      "inputs": [],
      "name": "totalTrades",
      "outputs": [
        {
          "internalType": "uint256",
          "name": "",
          "type": "uint256"
        }
      ],
      "stateMutability": "view",
      "type": "function"
    },
    {
      "inputs": [],
      "name": "totalVolume",
      "outputs": [
        {
          "internalType": "uint256",
          "name": "",
          "type": "uint256"
        }
      ],
      "stateMutability": "view",
      "type": "function"
    },
    {
      "inputs": [
        {
          "internalType": "address",
          "name": "",
          "type": "address"
        },
        {
          "internalType": "uint256",
          "name": "",
          "type": "uint256"
        }
      ],
      "name": "tradeHistory",
      "outputs": [
        {
          "internalType": "address",
          "name": "trader",
          "type": "address"
        },
        {
          "internalType": "address",
          "name": "token",
          "type": "address"
        },
        {
          "internalType": "bool",
          "name": "isBuy",
          "type": "bool"
        },
        {
          "internalType": "uint256",
          "name": "tokenAmount",
          "type": "uint256"
        },
        {
          "internalType": "uint256",
          "name": "ethAmount",
          "type": "uint256"
        },
        {
          "internalType": "uint256",
          "name": "price",
          "type": "uint256"
        },
        {
          "internalType": "uint256",
          "name": "timestamp",
          "type": "uint256"
        }
      ],
      "stateMutability": "view",
      "type": "function"
    },
    {
      "inputs": [
        {
          "internalType": "address",
          "name": "newOwner",
          "type": "address"
        }
      ],
      "name": "transferOwnership",
      "outputs": [],
      "stateMutability": "nonpayable",
      "type": "function"
    },
    {
      "inputs": [],
      "name": "unpause",
      "outputs": [],
      "stateMutability": "nonpayable",
      "type": "function"
    },
    {
      "inputs": [
        {
          "internalType": "uint256",
          "name": "expected",
          "type": "uint256"
        },
        {
          "internalType": "uint256",
          "name": "actual",
          "type": "uint256"
        }
      ],
      "name": "validateSlippage",
      "outputs": [
        {
          "internalType": "bool",
          "name": "",
          "type": "bool"
        }
      ],
      "stateMutability": "pure",
      "type": "function"
    }
  ],
  "bytecode": "0x60806040523480156200001157600080fd5b5060405162002416380380620024168339810160408190526200003491620001c5565b33806200005c57604051631e4fbdf760e01b8152600060048201526024015b60405180910390fd5b620000678162000158565b50600180556001600160a01b038216620000c45760405162461bcd60e51b815260206004820152601560248201527f496e76616c696420746f6b656e20666163746f72790000000000000000000000604482015260640162000053565b6001600160a01b0381166200011c5760405162461bcd60e51b815260206004820152601560248201527f496e76616c69642066656520636f6c6c6563746f720000000000000000000000604482015260640162000053565b60028054610100600160a81b0319166101006001600160a01b0394851602179055600380546001600160a01b03191691909216179055620001fd565b600080546001600160a01b038381166001600160a01b0319831681178455604051919092169283917f8be0079c531659141344cd1fd0a4f28419497f9722a3daafe3b4186f6b6457e09190a35050565b80516001600160a01b0381168114620001c057600080fd5b919050565b60008060408385031215620001d957600080fd5b620001e483620001a8565b9150620001f460208401620001a8565b90509250929050565b612209806200020d6000396000f3fe6080604052600436106101c25760003560e01c80638456cb59116100f7578063ce4b5bbe11610095578063e275c99711610064578063e275c99714610574578063e77772fe1461058a578063f2fde38b146105af578063f86325ed146105cf57600080fd5b8063ce4b5bbe14610512578063d73792a914610529578063db2e21bc1461053f578063df0e96f31461055457600080fd5b8063a42dce80116100d1578063a42dce801461049f578063babc98a4146104bf578063c415b95c146104df578063cce7ec13146104ff57600080fd5b80638456cb59146103fa5780638da5cb5b1461040f5780638e8f294b1461044157600080fd5b806356eb088b116101645780635fb412d31161013e5780635fb412d3146103785780636a272462146103a5578063715018a6146103c55780637c108333146103da57600080fd5b806356eb088b146102e45780635c975abb1461034a5780635f81a57c1461036257600080fd5b806320f6ab1f116101a057806320f6ab1f1461027257806332e4b286146102a25780633f4ba83a146102b857806340be94c4146102cf57600080fd5b80630cf85bcc146101c75780631c8b271a146102245780631dc9b1c114610252575b600080fd5b3480156101d357600080fd5b506101e76101e2366004611d99565b6105e9565b604080519687526020870195909552938501929092526060840152151560808301526001600160a01b031660a082015260c0015b60405180910390f35b34801561023057600080fd5b5061024461023f366004611dbd565b610689565b60405190815260200161021b565b34801561025e57600080fd5b5061024461026d366004611d99565b6107e2565b34801561027e57600080fd5b5061029261028d366004611de9565b6108be565b604051901515815260200161021b565b3480156102ae57600080fd5b506102446101f481565b3480156102c457600080fd5b506102cd610904565b005b3480156102db57600080fd5b50610244606481565b3480156102f057600080fd5b506103046102ff366004611dbd565b610916565b604080516001600160a01b039889168152979096166020880152931515948601949094526060850191909152608084015260a083019190915260c082015260e00161021b565b34801561035657600080fd5b5060025460ff16610292565b34801561036e57600080fd5b5061024460065481565b34801561038457600080fd5b50610398610393366004611dbd565b610981565b60405161021b9190611e0b565b3480156103b157600080fd5b506102cd6103c0366004611e9b565b610b6e565b3480156103d157600080fd5b506102cd610f79565b3480156103e657600080fd5b506102cd6103f5366004611d99565b610f8b565b34801561040657600080fd5b506102cd61125f565b34801561041b57600080fd5b506000546001600160a01b03165b6040516001600160a01b03909116815260200161021b565b34801561044d57600080fd5b506101e761045c366004611d99565b60046020819052600091825260409091208054600182015460028301546003840154939094015491939092909160ff81169061010090046001600160a01b031686565b3480156104ab57600080fd5b506102cd6104ba366004611d99565b61126f565b3480156104cb57600080fd5b506102446104da366004611dbd565b611311565b3480156104eb57600080fd5b50600354610429906001600160a01b031681565b6102cd61050d366004611dbd565b611405565b34801561051e57600080fd5b50610244620f424081565b34801561053557600080fd5b5061024461271081565b34801561054b57600080fd5b506102cd6116ea565b34801561056057600080fd5b506102cd61056f366004611d99565b61179b565b34801561058057600080fd5b5061024460075481565b34801561059657600080fd5b506002546104299061010090046001600160a01b031681565b3480156105bb57600080fd5b506102cd6105ca366004611d99565b61182d565b3480156105db57600080fd5b50610244655af3107a400081565b6001600160a01b038082166000908152600460208181526040808420815160c081018352815480825260018301549482018590526002830154938201939093526003820154606082015293015460ff811615156080850152610100900490941660a083015291928392839283928392839291906106658a6107e2565b6040840151608085015160a090950151939c929b5090995097509195509350915050565b60008082116106b35760405162461bcd60e51b81526004016106aa90611ed0565b60405180910390fd5b6001600160a01b03808416600090815260046020818152604092839020835160c081018552815481526001820154928101929092526002810154938201939093526003830154606082015291015460ff811615156080830181905261010090910490921660a0820152906107395760405162461bcd60e51b81526004016106aa90611efc565b80602001518311156107855760405162461bcd60e51b8152602060048201526015602482015274416d6f756e74206578636565647320737570706c7960581b60448201526064016106aa565b60006107ae84836020015161079a9190611f3d565b83602001518460400151856060015161186b565b905060006127106107c0606484611f50565b6107ca9190611f67565b90506107d68183611f3d565b93505050505b92915050565b6001600160a01b038082166000908152600460208181526040808420815160c08101835281548152600182015493810193909352600281015491830191909152600381015460608301529091015460ff811615156080830181905261010090910490931660a082015290916108695760405162461bcd60e51b81526004016106aa90611efc565b806020015160000361087f576040015192915050565b6000816060015182602001516108959190611f67565b905060006108a38280611f50565b90508083604001516108b59190611f89565b95945050505050565b60008282106108cf575060016107dc565b60006108db8385611f3d565b90506000846108ec61271084611f50565b6108f69190611f67565b6101f4101595945050505050565b61090c611955565b610914611982565b565b6005602052816000526040600020818154811061093257600080fd5b60009182526020909120600690910201805460018201546002830154600384015460048501546005909501546001600160a01b0394851697509383169550600160a01b90920460ff1693909287565b6001600160a01b0382166000908152600560209081526040808320805482518185028101850190935280835260609493849084015b82821015610a3e5760008481526020908190206040805160e0810182526006860290920180546001600160a01b03908116845260018083015491821685870152600160a01b90910460ff161515928401929092526002810154606084015260038101546080840152600481015460a08401526005015460c083015290835290920191016109b6565b5050505090508051600003610a87576040805160008082526020820190925290610a7e565b610a6b611d33565b815260200190600190039081610a635790505b509150506107dc565b600083825111610a98578151610a9a565b835b905060008167ffffffffffffffff811115610ab757610ab7611f9c565b604051908082528060200260200182016040528015610af057816020015b610add611d33565b815260200190600190039081610ad55790505b5090506000828451610b029190611f3d565b905060005b83811015610b625784610b1a8284611f89565b81518110610b2a57610b2a611fb2565b6020026020010151838281518110610b4457610b44611fb2565b60200260200101819052508080610b5a90611fc8565b915050610b07565b50909695505050505050565b610b766119d4565b610b7e6119fe565b60008211610b9e5760405162461bcd60e51b81526004016106aa90611ed0565b6001600160a01b0383166000908152600460208190526040909120015460ff16610bda5760405162461bcd60e51b81526004016106aa90611efc565b6001600160a01b03831660009081526004602052604090206001810154831115610c3e5760405162461bcd60e51b8152602060048201526015602482015274416d6f756e74206578636565647320737570706c7960581b60448201526064016106aa565b6000610c4a8585610689565b905082811015610c905760405162461bcd60e51b81526020600482015260116024820152700a6d8d2e0e0c2ceca40e8dede40d0d2ced607b1b60448201526064016106aa565b8154811115610cd95760405162461bcd60e51b8152602060048201526015602482015274496e73756666696369656e7420726573657276657360581b60448201526064016106aa565b6000610d02858460010154610cee9190611f3d565b84600101548560020154866003015461186b565b90506000612710610d14606484611f50565b610d1e9190611f67565b905082846000016000828254610d349190611f3d565b9250508190555085846001016000828254610d4f9190611f3d565b90915550506040516323b872dd60e01b8152336004820152306024820152604481018790526001600160a01b038816906323b872dd906064016020604051808303816000875af1158015610da7573d6000803e3d6000fd5b505050506040513d601f19601f82011682018060405250810190610dcb9190611ff6565b50604051600090339085908381818185875af1925050503d8060008114610e0e576040519150601f19603f3d011682016040523d82523d6000602084013e610e13565b606091505b5050905080610e5a5760405162461bcd60e51b8152602060048201526013602482015272115512081d1c985b9cd9995c8819985a5b1959606a1b60448201526064016106aa565b6003546040516000916001600160a01b03169084908381818185875af1925050503d8060008114610ea7576040519150601f19603f3d011682016040523d82523d6000602084013e610eac565b606091505b5050905080610ef35760405162461bcd60e51b8152602060048201526013602482015272119959481d1c985b9cd9995c8819985a5b1959606a1b60448201526064016106aa565b610f01893360008b89611a22565b6000610f0c8a6107e2565b604080518b815260208101899052908101869052606081018290529091506001600160a01b038b169033907f34f38731fae2221a0127cde5769237f08a73e828efb7c9a19e4c6fa171ff763d9060800160405180910390a350505050505050610f7460018055565b505050565b610f81611955565b6109146000611b55565b610f936119fe565b60025460405163c187645360e01b81526001600160a01b0383811660048301526101009092049091169063c187645390602401602060405180830381865afa158015610fe3573d6000803e3d6000fd5b505050506040513d601f19601f820116820180604052508101906110079190611ff6565b61104c5760405162461bcd60e51b8152602060048201526016602482015275546f6b656e206e6f742066726f6d20666163746f727960501b60448201526064016106aa565b6001600160a01b0381166000908152600460208190526040909120015460ff16156110b15760405162461bcd60e51b81526020600482015260156024820152744d61726b657420616c72656164792065786973747360581b60448201526064016106aa565b600254604051631f69565f60e01b81526001600160a01b03838116600483015260009261010090041690631f69565f90602401600060405180830381865afa158015611101573d6000803e3d6000fd5b505050506040513d6000823e601f3d908101601f1916820160405261112991908101906120fb565b90508060c0015161116f5760405162461bcd60e51b815260206004820152601060248201526f546f6b656e206e6f742061637469766560801b60448201526064016106aa565b6040805160c08101825260008082526020808301828152655af3107a4000848601818152620f4240606087018181526001608089018181528b880180516001600160a01b0390811660a08d019081528f8216808d526004808d529c8f90209d518e559951948d0194909455955160028c0155925160038b0155519890970180549751841661010002610100600160a81b0319991515999099166001600160a81b0319909816979097179790971790955594518651918252928101939093529216927fa3338e7d56c8ad2fd672ca237b0efc97d3f2df1d9d9ca4d0be309138e05e13a2910160405180910390a35050565b611267611955565b610914611ba5565b611277611955565b6001600160a01b0381166112bf5760405162461bcd60e51b815260206004820152600f60248201526e496e76616c6964206164647265737360881b60448201526064016106aa565b600380546001600160a01b038381166001600160a01b0319831681179093556040519116919082907f5d16ad41baeb009cd23eb8f6c7cde5c2e0cd5acf4a33926ab488875c37c37f3890600090a35050565b60008082116113325760405162461bcd60e51b81526004016106aa90611ed0565b6001600160a01b03808416600090815260046020818152604092839020835160c081018552815481526001820154928101929092526002810154938201939093526003830154606082015291015460ff811615156080830181905261010090910490921660a0820152906113b85760405162461bcd60e51b81526004016106aa90611efc565b60208101516000906113dd906113ce8682611f89565b8460400151856060015161186b565b905060006127106113ef606484611f50565b6113f99190611f67565b90506107d68183611f89565b61140d6119d4565b6114156119fe565b600034116114555760405162461bcd60e51b815260206004820152600d60248201526c09aeae6e840e6cadcc8408aa89609b1b60448201526064016106aa565b6001600160a01b0382166000908152600460208190526040909120015460ff166114915760405162461bcd60e51b81526004016106aa90611efc565b600061149d8334611be2565b9050818110156114e35760405162461bcd60e51b81526020600482015260116024820152700a6d8d2e0e0c2ceca40e8dede40d0d2ced607b1b60448201526064016106aa565b6001600160a01b038316600090815260046020526040812090349061271061150c606484611f50565b6115169190611f67565b905060006115248284611f3d565b90508084600001600082825461153a9190611f89565b92505081905550848460010160008282546115559190611f89565b909155505060405163a9059cbb60e01b8152336004820152602481018690526001600160a01b0388169063a9059cbb906044016020604051808303816000875af11580156115a7573d6000803e3d6000fd5b505050506040513d601f19601f820116820180604052508101906115cb9190611ff6565b506003546040516000916001600160a01b03169084908381818185875af1925050503d8060008114611619576040519150601f19603f3d011682016040523d82523d6000602084013e61161e565b606091505b50509050806116655760405162461bcd60e51b8152602060048201526013602482015272119959481d1c985b9cd9995c8819985a5b1959606a1b60448201526064016106aa565b611673883360018988611a22565b600061167e896107e2565b6040805189815260208101889052908101869052606081018290529091506001600160a01b038a169033907f0b9c8304b83df3d2827b952a8e4c87faef3556dddcde57a47cb80f0c755606a59060800160405180910390a3505050505050506116e660018055565b5050565b6116f2611955565b4760006117076000546001600160a01b031690565b6001600160a01b03168260405160006040518083038185875af1925050503d8060008114611751576040519150601f19603f3d011682016040523d82523d6000602084013e611756565b606091505b50509050806116e65760405162461bcd60e51b815260206004820152601160248201527015da5d1a191c985dd85b0819985a5b1959607a1b60448201526064016106aa565b6117a3611955565b6001600160a01b0381166000908152600460208190526040909120015460ff166117df5760405162461bcd60e51b81526004016106aa90611efc565b6001600160a01b0381166000818152600460208190526040808320909101805460ff19169055517f99b05d6facc9387870eed0c089b38b19ce369f3cecfd97733d779eaa8a2478ed9190a250565b611835611955565b6001600160a01b03811661185f57604051631e4fbdf760e01b8152600060048201526024016106aa565b61186881611b55565b50565b6000848410156118ad5760405162461bcd60e51b815260206004820152600d60248201526c496e76616c69642072616e676560981b60448201526064016106aa565b60006118b98686611f3d565b905060006118c78286611f50565b905060006118d58580611f50565b876118e08180611f50565b6118ea9190611f50565b6118f49190611f67565b905060006119028680611f50565b8961190d8180611f50565b6119179190611f50565b6119219190611f67565b9050600060036119318385611f3d565b61193b9190611f67565b90506119478185611f89565b9a9950505050505050505050565b6000546001600160a01b031633146109145760405163118cdaa760e01b81523360048201526024016106aa565b61198a611d10565b6002805460ff191690557f5db9ee0a495bf2e6ff9c91a7834c1ba4fdd244a5e8aa4e537bd38aeae4b073aa335b6040516001600160a01b03909116815260200160405180910390a1565b6002600154036119f757604051633ee5aeb560e01b815260040160405180910390fd5b6002600155565b60025460ff16156109145760405163d93c066560e01b815260040160405180910390fd5b60056000866001600160a01b03166001600160a01b031681526020019081526020016000206040518060e00160405280866001600160a01b03168152602001876001600160a01b031681526020018515158152602001848152602001838152602001611a8d886107e2565b81524260209182015282546001818101855560009485528285208451600693840290910180546001600160a01b039283166001600160a01b031990911617815593850151918401805460408701511515600160a01b026001600160a81b03199091169390921692909217179055606083015160028301556080830151600383015560a0830151600483015560c0909201516005909101558054839290611b34908490611f89565b909155505060078054906000611b4983611fc8565b91905055505050505050565b600080546001600160a01b038381166001600160a01b0319831681178455604051919092169283917f8be0079c531659141344cd1fd0a4f28419497f9722a3daafe3b4186f6b6457e09190a35050565b611bad6119fe565b6002805460ff191660011790557f62e78cea01bee320cd4e420270b5ea74000d11b0c9f74754ebdbfc544b05a2586119b73390565b6001600160a01b038083166000908152600460208181526040808420815160c08101835281548152600182015493810193909352600281015491830191909152600381015460608301529091015460ff811615156080830152610100900490921660a08301529081612710611c58606486611f50565b611c629190611f67565b90506000611c708286611f3d565b90506000808460200151633b9aca00611c899190611f89565b90505b80821015611d055760006002611ca28385611f89565b611cad906001611f89565b611cb79190611f67565b6020870151909150600090611cdf90611cd08482611f89565b89604001518a6060015161186b565b9050848111611cf057819350611cfe565b611cfb600183611f3d565b92505b5050611c8c565b509695505050505050565b60025460ff1661091457604051638dfc202b60e01b815260040160405180910390fd5b6040518060e0016040528060006001600160a01b0316815260200160006001600160a01b03168152602001600015158152602001600081526020016000815260200160008152602001600081525090565b6001600160a01b038116811461186857600080fd5b600060208284031215611dab57600080fd5b8135611db681611d84565b9392505050565b60008060408385031215611dd057600080fd5b8235611ddb81611d84565b946020939093013593505050565b60008060408385031215611dfc57600080fd5b50508035926020909101359150565b602080825282518282018190526000919060409081850190868401855b82811015611e8e57815180516001600160a01b03908116865287820151168786015285810151151586860152606080820151908601526080808201519086015260a0808201519086015260c0908101519085015260e09093019290850190600101611e28565b5091979650505050505050565b600080600060608486031215611eb057600080fd5b8335611ebb81611d84565b95602085013595506040909401359392505050565b6020808252601290820152710416d6f756e74206d757374206265203e20360741b604082015260600190565b6020808252601190820152704d61726b6574206e6f742061637469766560781b604082015260600190565b634e487b7160e01b600052601160045260246000fd5b818103818111156107dc576107dc611f27565b80820281158282048414176107dc576107dc611f27565b600082611f8457634e487b7160e01b600052601260045260246000fd5b500490565b808201808211156107dc576107dc611f27565b634e487b7160e01b600052604160045260246000fd5b634e487b7160e01b600052603260045260246000fd5b600060018201611fda57611fda611f27565b5060010190565b80518015158114611ff157600080fd5b919050565b60006020828403121561200857600080fd5b611db682611fe1565b60405160e0810167ffffffffffffffff8111828210171561203457612034611f9c565b60405290565b604051601f8201601f1916810167ffffffffffffffff8111828210171561206357612063611f9c565b604052919050565b8051611ff181611d84565b600082601f83011261208757600080fd5b815167ffffffffffffffff8111156120a1576120a1611f9c565b60206120b5601f8301601f1916820161203a565b82815285828487010111156120c957600080fd5b60005b838110156120e75785810183015182820184015282016120cc565b506000928101909101919091529392505050565b60006020828403121561210d57600080fd5b815167ffffffffffffffff8082111561212557600080fd5b9083019060e0828603121561213957600080fd5b612141612011565b61214a8361206b565b81526121586020840161206b565b602082015260408301518281111561216f57600080fd5b61217b87828601612076565b60408301525060608301518281111561219357600080fd5b61219f87828601612076565b6060830152506080830151608082015260a083015160a08201526121c560c08401611fe1565b60c08201529594505050505056fea2646970667358221220c835cbfe34c833a70501c2d8ec56bd64bceec035afd04225964229ccde1786ee64736f6c63430008140033",
  "linkReferences": {},
  "deployedLinkReferences": {}
}