{
  "_format": "hh-sol-artifact-1",
  "contractName": "CreatorRegistry",
  "sourceName": "contracts/CreatorRegistry.sol",
  "abi": [
    {
      "inputs": [],
      "stateMutability": "nonpayable",
      "type": "constructor"
    },
    {
      "inputs": [
        {
          "internalType": "address",
          "name": "owner",
          "type": "address"
        }
      ],
      "name": "OwnableInvalidOwner",
      "type": "error"
    },
    {
      "inputs": [
        {
          "internalType": "address",
          "name": "account",
          "type": "address"
        }
      ],
      "name": "OwnableUnauthorizedAccount",
      "type": "error"
    },
    {
      "anonymous": false,
      "inputs": [
        {
          "indexed": true,
          "internalType": "address",
          "name": "creator",
          "type": "address"
        },
        {
          "indexed": false,
          "internalType": "string",
          "name": "reason",
          "type": "string"
        },
        {
          "indexed": false,
          "internalType": "uint256",
          "name": "timestamp",
          "type": "uint256"
        }
      ],
      "name": "CreatorBanned",
      "type": "event"
    },
    {
      "anonymous": false,
      "inputs": [
        {
          "indexed": true,
          "internalType": "address",
          "name": "creator",
          "type": "address"
        },
        {
          "indexed": true,
          "internalType": "address",
          "name": "flagger",
          "type": "address"
        },
        {
          "indexed": false,
          "internalType": "string",
          "name": "reason",
          "type": "string"
        },
        {
          "indexed": false,
          "internalType": "uint256",
          "name": "timestamp",
          "type": "uint256"
        }
      ],
      "name": "CreatorFlagged",
      "type": "event"
    },
    {
      "anonymous": false,
      "inputs": [
        {
          "indexed": true,
          "internalType": "address",
          "name": "creator",
          "type": "address"
        },
        {
          "indexed": true,
          "internalType": "address",
          "name": "rater",
          "type": "address"
        },
        {
          "indexed": false,
          "internalType": "uint8",
          "name": "score",
          "type": "uint8"
        },
        {
          "indexed": false,
          "internalType": "uint256",
          "name": "timestamp",
          "type": "uint256"
        }
      ],
      "name": "CreatorRated",
      "type": "event"
    },
    {
      "anonymous": false,
      "inputs": [
        {
          "indexed": true,
          "internalType": "address",
          "name": "creator",
          "type": "address"
        },
        {
          "indexed": false,
          "internalType": "string",
          "name": "name",
          "type": "string"
        },
        {
          "indexed": false,
          "internalType": "uint256",
          "name": "timestamp",
          "type": "uint256"
        }
      ],
      "name": "CreatorRegistered",
      "type": "event"
    },
    {
      "anonymous": false,
      "inputs": [
        {
          "indexed": true,
          "internalType": "address",
          "name": "creator",
          "type": "address"
        },
        {
          "indexed": true,
          "internalType": "address",
          "name": "verifier",
          "type": "address"
        },
        {
          "indexed": false,
          "internalType": "uint256",
          "name": "timestamp",
          "type": "uint256"
        }
      ],
      "name": "CreatorVerified",
      "type": "event"
    },
    {
      "anonymous": false,
      "inputs": [
        {
          "indexed": true,
          "internalType": "address",
          "name": "previousOwner",
          "type": "address"
        },
        {
          "indexed": true,
          "internalType": "address",
          "name": "newOwner",
          "type": "address"
        }
      ],
      "name": "OwnershipTransferred",
      "type": "event"
    },
    {
      "anonymous": false,
      "inputs": [
        {
          "indexed": true,
          "internalType": "address",
          "name": "creator",
          "type": "address"
        },
        {
          "indexed": false,
          "internalType": "uint256",
          "name": "timestamp",
          "type": "uint256"
        }
      ],
      "name": "ProfileUpdated",
      "type": "event"
    },
    {
      "anonymous": false,
      "inputs": [
        {
          "indexed": true,
          "internalType": "address",
          "name": "creator",
          "type": "address"
        },
        {
          "indexed": false,
          "internalType": "uint256",
          "name": "tokensCreated",
          "type": "uint256"
        },
        {
          "indexed": false,
          "internalType": "uint256",
          "name": "totalVolume",
          "type": "uint256"
        }
      ],
      "name": "StatsUpdated",
      "type": "event"
    },
    {
      "inputs": [
        {
          "internalType": "address",
          "name": "verifier",
          "type": "address"
        }
      ],
      "name": "addVerifier",
      "outputs": [],
      "stateMutability": "nonpayable",
      "type": "function"
    },
    {
      "inputs": [
        {
          "internalType": "address",
          "name": "creator",
          "type": "address"
        },
        {
          "internalType": "string",
          "name": "reason",
          "type": "string"
        }
      ],
      "name": "banCreator",
      "outputs": [],
      "stateMutability": "nonpayable",
      "type": "function"
    },
    {
      "inputs": [
        {
          "internalType": "uint256",
          "name": "",
          "type": "uint256"
        }
      ],
      "name": "creators",
      "outputs": [
        {
          "internalType": "address",
          "name": "",
          "type": "address"
        }
      ],
      "stateMutability": "view",
      "type": "function"
    },
    {
      "inputs": [
        {
          "internalType": "address",
          "name": "creator",
          "type": "address"
        },
        {
          "internalType": "string",
          "name": "reason",
          "type": "string"
        }
      ],
      "name": "flagCreator",
      "outputs": [],
      "stateMutability": "nonpayable",
      "type": "function"
    },
    {
      "inputs": [
        {
          "internalType": "address",
          "name": "creator",
          "type": "address"
        }
      ],
      "name": "getAverageRating",
      "outputs": [
        {
          "internalType": "uint256",
          "name": "",
          "type": "uint256"
        }
      ],
      "stateMutability": "view",
      "type": "function"
    },
    {
      "inputs": [
        {
          "internalType": "uint256",
          "name": "offset",
          "type": "uint256"
        },
        {
          "internalType": "uint256",
          "name": "limit",
          "type": "uint256"
        },
        {
          "internalType": "bool",
          "name": "onlyVerified",
          "type": "bool"
        }
      ],
      "name": "getCreators",
      "outputs": [
        {
          "internalType": "address[]",
          "name": "",
          "type": "address[]"
        }
      ],
      "stateMutability": "view",
      "type": "function"
    },
    {
      "inputs": [
        {
          "internalType": "address",
          "name": "creator",
          "type": "address"
        }
      ],
      "name": "getProfile",
      "outputs": [
        {
          "internalType": "string",
          "name": "name",
          "type": "string"
        },
        {
          "internalType": "string",
          "name": "bio",
          "type": "string"
        },
        {
          "internalType": "string",
          "name": "website",
          "type": "string"
        },
        {
          "internalType": "string",
          "name": "twitter",
          "type": "string"
        },
        {
          "internalType": "string",
          "name": "telegram",
          "type": "string"
        },
        {
          "internalType": "uint256",
          "name": "registeredAt",
          "type": "uint256"
        },
        {
          "internalType": "bool",
          "name": "isVerified",
          "type": "bool"
        },
        {
          "internalType": "bool",
          "name": "isBanned",
          "type": "bool"
        }
      ],
      "stateMutability": "view",
      "type": "function"
    },
    {
      "inputs": [
        {
          "internalType": "address",
          "name": "creator",
          "type": "address"
        },
        {
          "internalType": "uint256",
          "name": "offset",
          "type": "uint256"
        },
        {
          "internalType": "uint256",
          "name": "limit",
          "type": "uint256"
        }
      ],
      "name": "getRatings",
      "outputs": [
        {
          "components": [
            {
              "internalType": "address",
              "name": "rater",
              "type": "address"
            },
            {
              "internalType": "uint8",
              "name": "score",
              "type": "uint8"
            },
            {
              "internalType": "string",
              "name": "comment",
              "type": "string"
            },
            {
              "internalType": "uint256",
              "name": "timestamp",
              "type": "uint256"
            }
          ],
          "internalType": "struct CreatorRegistry.Rating[]",
          "name": "",
          "type": "tuple[]"
        }
      ],
      "stateMutability": "view",
      "type": "function"
    },
    {
      "inputs": [
        {
          "internalType": "address",
          "name": "creator",
          "type": "address"
        }
      ],
      "name": "getRatingsCount",
      "outputs": [
        {
          "internalType": "uint256",
          "name": "",
          "type": "uint256"
        }
      ],
      "stateMutability": "view",
      "type": "function"
    },
    {
      "inputs": [
        {
          "internalType": "address",
          "name": "creator",
          "type": "address"
        }
      ],
      "name": "getStats",
      "outputs": [
        {
          "internalType": "uint256",
          "name": "tokensCreated",
          "type": "uint256"
        },
        {
          "internalType": "uint256",
          "name": "totalVolume",
          "type": "uint256"
        },
        {
          "internalType": "uint256",
          "name": "averageRating",
          "type": "uint256"
        },
        {
          "internalType": "uint256",
          "name": "totalRatings",
          "type": "uint256"
        },
        {
          "internalType": "uint256",
          "name": "flags",
          "type": "uint256"
        }
      ],
      "stateMutability": "view",
      "type": "function"
    },
    {
      "inputs": [
        {
          "internalType": "uint256",
          "name": "limit",
          "type": "uint256"
        }
      ],
      "name": "getTopCreators",
      "outputs": [
        {
          "internalType": "address[]",
          "name": "topCreators",
          "type": "address[]"
        },
        {
          "internalType": "uint256[]",
          "name": "volumes",
          "type": "uint256[]"
        }
      ],
      "stateMutability": "view",
      "type": "function"
    },
    {
      "inputs": [
        {
          "internalType": "address",
          "name": "",
          "type": "address"
        },
        {
          "internalType": "address",
          "name": "",
          "type": "address"
        }
      ],
      "name": "hasRated",
      "outputs": [
        {
          "internalType": "bool",
          "name": "",
          "type": "bool"
        }
      ],
      "stateMutability": "view",
      "type": "function"
    },
    {
      "inputs": [
        {
          "internalType": "address",
          "name": "creator",
          "type": "address"
        }
      ],
      "name": "incrementTokensCreated",
      "outputs": [],
      "stateMutability": "nonpayable",
      "type": "function"
    },
    {
      "inputs": [
        {
          "internalType": "address",
          "name": "",
          "type": "address"
        }
      ],
      "name": "isRegistered",
      "outputs": [
        {
          "internalType": "bool",
          "name": "",
          "type": "bool"
        }
      ],
      "stateMutability": "view",
      "type": "function"
    },
    {
      "inputs": [],
      "name": "owner",
      "outputs": [
        {
          "internalType": "address",
          "name": "",
          "type": "address"
        }
      ],
      "stateMutability": "view",
      "type": "function"
    },
    {
      "inputs": [
        {
          "internalType": "address",
          "name": "",
          "type": "address"
        }
      ],
      "name": "profiles",
      "outputs": [
        {
          "internalType": "string",
          "name": "name",
          "type": "string"
        },
        {
          "internalType": "string",
          "name": "bio",
          "type": "string"
        },
        {
          "internalType": "string",
          "name": "website",
          "type": "string"
        },
        {
          "internalType": "string",
          "name": "twitter",
          "type": "string"
        },
        {
          "internalType": "string",
          "name": "telegram",
          "type": "string"
        },
        {
          "internalType": "uint256",
          "name": "registeredAt",
          "type": "uint256"
        },
        {
          "internalType": "bool",
          "name": "isVerified",
          "type": "bool"
        },
        {
          "internalType": "bool",
          "name": "isBanned",
          "type": "bool"
        }
      ],
      "stateMutability": "view",
      "type": "function"
    },
    {
      "inputs": [
        {
          "internalType": "address",
          "name": "creator",
          "type": "address"
        },
        {
          "internalType": "uint8",
          "name": "score",
          "type": "uint8"
        },
        {
          "internalType": "string",
          "name": "comment",
          "type": "string"
        }
      ],
      "name": "rateCreator",
      "outputs": [],
      "stateMutability": "nonpayable",
      "type": "function"
    },
    {
      "inputs": [
        {
          "internalType": "address",
          "name": "",
          "type": "address"
        },
        {
          "internalType": "uint256",
          "name": "",
          "type": "uint256"
        }
      ],
      "name": "ratings",
      "outputs": [
        {
          "internalType": "address",
          "name": "rater",
          "type": "address"
        },
        {
          "internalType": "uint8",
          "name": "score",
          "type": "uint8"
        },
        {
          "internalType": "string",
          "name": "comment",
          "type": "string"
        },
        {
          "internalType": "uint256",
          "name": "timestamp",
          "type": "uint256"
        }
      ],
      "stateMutability": "view",
      "type": "function"
    },
    {
      "inputs": [
        {
          "internalType": "string",
          "name": "name",
          "type": "string"
        },
        {
          "internalType": "string",
          "name": "bio",
          "type": "string"
        },
        {
          "internalType": "string",
          "name": "website",
          "type": "string"
        },
        {
          "internalType": "string",
          "name": "twitter",
          "type": "string"
        },
        {
          "internalType": "string",
          "name": "telegram",
          "type": "string"
        }
      ],
      "name": "registerCreator",
      "outputs": [],
      "stateMutability": "nonpayable",
      "type": "function"
    },
    {
      "inputs": [
        {
          "internalType": "address",
          "name": "verifier",
          "type": "address"
        }
      ],
      "name": "removeVerifier",
      "outputs": [],
      "stateMutability": "nonpayable",
      "type": "function"
    },
    {
      "inputs": [],
      "name": "renounceOwnership",
      "outputs": [],
      "stateMutability": "nonpayable",
      "type": "function"
    },
    {
      "inputs": [
        {
          "internalType": "address",
          "name": "",
          "type": "address"
        }
      ],
      "name": "stats",
      "outputs": [
        {
          "internalType": "uint256",
          "name": "tokensCreated",
          "type": "uint256"
        },
        {
          "internalType": "uint256",
          "name": "totalVolume",
          "type": "uint256"
        },
        {
          "internalType": "uint256",
          "name": "totalRatings",
          "type": "uint256"
        },
        {
          "internalType": "uint256",
          "name": "sumRatings",
          "type": "uint256"
        },
        {
          "internalType": "uint256",
          "name": "flags",
          "type": "uint256"
        }
      ],
      "stateMutability": "view",
      "type": "function"
    },
    {
      "inputs": [],
      "name": "totalCreators",
      "outputs": [
        {
          "internalType": "uint256",
          "name": "",
          "type": "uint256"
        }
      ],
      "stateMutability": "view",
      "type": "function"
    },
    {
      "inputs": [
        {
          "internalType": "address",
          "name": "newOwner",
          "type": "address"
        }
      ],
      "name": "transferOwnership",
      "outputs": [],
      "stateMutability": "nonpayable",
      "type": "function"
    },
    {
      "inputs": [
        {
          "internalType": "address",
          "name": "creator",
          "type": "address"
        }
      ],
      "name": "unbanCreator",
      "outputs": [],
      "stateMutability": "nonpayable",
      "type": "function"
    },
    {
      "inputs": [
        {
          "internalType": "address",
          "name": "creator",
          "type": "address"
        }
      ],
      "name": "unverifyCreator",
      "outputs": [],
      "stateMutability": "nonpayable",
      "type": "function"
    },
    {
      "inputs": [
        {
          "internalType": "string",
          "name": "name",
          "type": "string"
        },
        {
          "internalType": "string",
          "name": "bio",
          "type": "string"
        },
        {
          "internalType": "string",
          "name": "website",
          "type": "string"
        },
        {
          "internalType": "string",
          "name": "twitter",
          "type": "string"
        },
        {
          "internalType": "string",
          "name": "telegram",
          "type": "string"
        }
      ],
      "name": "updateProfile",
      "outputs": [],
      "stateMutability": "nonpayable",
      "type": "function"
    },
    {
      "inputs": [
        {
          "internalType": "address",
          "name": "creator",
          "type": "address"
        },
        {
          "internalType": "uint256",
          "name": "volumeToAdd",
          "type": "uint256"
        }
      ],
      "name": "updateStats",
      "outputs": [],
      "stateMutability": "nonpayable",
      "type": "function"
    },
    {
      "inputs": [
        {
          "internalType": "address",
          "name": "",
          "type": "address"
        }
      ],
      "name": "verifiers",
      "outputs": [
        {
          "internalType": "bool",
          "name": "",
          "type": "bool"
        }
      ],
      "stateMutability": "view",
      "type": "function"
    },
    {
      "inputs": [
        {
          "internalType": "address",
          "name": "creator",
          "type": "address"
        }
      ],
      "name": "verifyCreator",
      "outputs": [],
      "stateMutability": "nonpayable",
      "type": "function"
    }
  ],
  "bytecode": "0x60806040523480156200001157600080fd5b5033806200003957604051631e4fbdf760e01b81526000600482015260240160405180910390fd5b620000448162000065565b50336000908152600760205260409020805460ff19166001179055620000b5565b600080546001600160a01b038381166001600160a01b0319831681178455604051919092169283917f8be0079c531659141344cd1fd0a4f28419497f9722a3daafe3b4186f6b6457e09190a35050565b612cf380620000c56000396000f3fe608060405234801561001057600080fd5b50600436106101da5760003560e01c80638da5cb5b11610104578063c3c5a547116100a2578063e2a247db11610071578063e2a247db146104d4578063e843f61c146104e7578063f2fde38b14610508578063f8a253f31461051b57600080fd5b8063c3c5a54714610478578063c8b675221461049b578063ca2dfd0a146104ae578063cd53d08e146104c157600080fd5b80639d96cce1116100de5780639d96cce11461042c578063b043e0321461043f578063bbe1562714610452578063c23f85d61461046557600080fd5b80638da5cb5b146103e15780639000b3d61461040657806398dd1b651461041957600080fd5b8063534b0e0c1161017c5780637212110e1161014b5780637212110e146103435780638a19ee04146103565780638bcdcbf3146103695780638c00d786146103ce57600080fd5b8063534b0e0c146102e55780636116f913146103055780636c82448714610318578063715018a61461033b57600080fd5b80632a0e54bd116101b85780632a0e54bd1461023b5780632c365df61461025e5780633c94e0c91461029c578063499ea127146102bc57600080fd5b806301a3eaa8146101df5780630f53a470146101f457806311c0036c14610224575b600080fd5b6101f26101ed366004612488565b61052e565b005b6102076102023660046124db565b610672565b60405161021b98979695949392919061253c565b60405180910390f35b61022d60085481565b60405190815260200161021b565b61024e6102493660046125c3565b610a01565b60405161021b94939291906125ed565b61028c61026c36600461262b565b600460209081526000928352604080842090915290825290205460ff1681565b604051901515815260200161021b565b6102af6102aa36600461265e565b610ae1565b60405161021b91906126e0565b61022d6102ca3660046124db565b6001600160a01b031660009081526003602052604090205490565b6102f86102f33660046126f3565b610cca565b60405161021b9190612726565b6101f26103133660046124db565b610f83565b61028c6103263660046124db565b60076020526000908152604090205460ff1681565b6101f2610fef565b6101f26103513660046127c0565b611003565b6101f26103643660046124db565b6113ca565b6103a66103773660046124db565b600260208190526000918252604090912080546001820154928201546003830154600490930154919392909185565b604080519586526020860194909452928401919091526060830152608082015260a00161021b565b6101f26103dc3660046125c3565b61142e565b6000546001600160a01b03165b6040516001600160a01b03909116815260200161021b565b6101f26104143660046124db565b611509565b6101f26104273660046124db565b611535565b6101f261043a366004612488565b61161e565b6101f261044d3660046127c0565b61171c565b6102076104603660046124db565b61191a565b6103a66104733660046124db565b611c09565b61028c6104863660046124db565b60066020526000908152604090205460ff1681565b61022d6104a93660046124db565b611cb2565b6101f26104bc3660046124db565b611d33565b6103ee6104cf3660046128b1565b611d5c565b6101f26104e23660046124db565b611d86565b6104fa6104f53660046128b1565b611e48565b60405161021b9291906128ca565b6101f26105163660046124db565b611fd4565b6101f2610529366004612921565b612012565b6001600160a01b03831660009081526006602052604090205460ff1661056f5760405162461bcd60e51b81526004016105669061298a565b60405180910390fd5b806105ae5760405162461bcd60e51b815260206004820152600f60248201526e1499585cdbdb881c995c5d5a5c9959608a1b6044820152606401610566565b6101f48111156105f25760405162461bcd60e51b815260206004820152600f60248201526e526561736f6e20746f6f206c6f6e6760881b6044820152606401610566565b6001600160a01b0383166000908152600260205260408120600401805491610619836129d0565b9190505550336001600160a01b0316836001600160a01b03167f767c37448289316064bf978a6784655022e0dd8499bd617bbc6a6a07f609458b848442604051610665939291906129e9565b60405180910390a3505050565b6060806060806060600080600080600160008b6001600160a01b03166001600160a01b03168152602001908152602001600020604051806101000160405290816000820180546106c190612a22565b80601f01602080910402602001604051908101604052809291908181526020018280546106ed90612a22565b801561073a5780601f1061070f5761010080835404028352916020019161073a565b820191906000526020600020905b81548152906001019060200180831161071d57829003601f168201915b5050505050815260200160018201805461075390612a22565b80601f016020809104026020016040519081016040528092919081815260200182805461077f90612a22565b80156107cc5780601f106107a1576101008083540402835291602001916107cc565b820191906000526020600020905b8154815290600101906020018083116107af57829003601f168201915b505050505081526020016002820180546107e590612a22565b80601f016020809104026020016040519081016040528092919081815260200182805461081190612a22565b801561085e5780601f106108335761010080835404028352916020019161085e565b820191906000526020600020905b81548152906001019060200180831161084157829003601f168201915b5050505050815260200160038201805461087790612a22565b80601f01602080910402602001604051908101604052809291908181526020018280546108a390612a22565b80156108f05780601f106108c5576101008083540402835291602001916108f0565b820191906000526020600020905b8154815290600101906020018083116108d357829003601f168201915b5050505050815260200160048201805461090990612a22565b80601f016020809104026020016040519081016040528092919081815260200182805461093590612a22565b80156109825780601f1061095757610100808354040283529160200191610982565b820191906000526020600020905b81548152906001019060200180831161096557829003601f168201915b5050509183525050600582015460208083019190915260069092015460ff80821615156040808501919091526101009092041615156060928301528351928401519084015191840151608085015160a086015160c087015160e090970151959f50929d50929b5099509097509550909350915050919395975091939597565b60036020528160005260406000208181548110610a1d57600080fd5b6000918252602090912060039091020180546001820180546001600160a01b0383169550600160a01b90920460ff16935090610a5890612a22565b80601f0160208091040260200160405190810160405280929190818152602001828054610a8490612a22565b8015610ad15780601f10610aa657610100808354040283529160200191610ad1565b820191906000526020600020905b815481529060010190602001808311610ab457829003601f168201915b5050505050908060020154905084565b6005546060908410610b025750604080516000815260208101909152610cc3565b6000610b0e8486612a72565b600554909150811115610b2057506005545b6000855b82811015610b9c57841580610b7757506001600060058381548110610b4b57610b4b612a8b565b60009182526020808320909101546001600160a01b0316835282019290925260400190206006015460ff165b15610b8a5781610b86816129d0565b9250505b80610b94816129d0565b915050610b24565b5060008167ffffffffffffffff811115610bb857610bb8612a5c565b604051908082528060200260200182016040528015610be1578160200160208202803683370190505b5090506000875b84811015610cbb57861580610c3b57506001600060058381548110610c0f57610c0f612a8b565b60009182526020808320909101546001600160a01b0316835282019290925260400190206006015460ff165b15610ca95760058181548110610c5357610c53612a8b565b9060005260206000200160009054906101000a90046001600160a01b0316838381518110610c8357610c83612a8b565b6001600160a01b039092166020928302919091019091015281610ca5816129d0565b9250505b80610cb3816129d0565b915050610be8565b509093505050505b9392505050565b6001600160a01b0383166000908152600360209081526040808320805482518185028101850190935280835260609493849084015b82821015610df3576000848152602090819020604080516080810182526003860290920180546001600160a01b0381168452600160a01b900460ff169383019390935260018301805492939291840191610d5890612a22565b80601f0160208091040260200160405190810160405280929190818152602001828054610d8490612a22565b8015610dd15780601f10610da657610100808354040283529160200191610dd1565b820191906000526020600020905b815481529060010190602001808311610db457829003601f168201915b5050505050815260200160028201548152505081526020019060010190610cff565b50505050905080518410610e6a576040805160008082526020820190925290610e61565b610e4e604051806080016040528060006001600160a01b03168152602001600060ff16815260200160608152602001600081525090565b815260200190600190039081610e175790505b50915050610cc3565b6000610e768486612a72565b90508151811115610e85575080515b6000610e918683612aa1565b905060008167ffffffffffffffff811115610eae57610eae612a5c565b604051908082528060200260200182016040528015610f1657816020015b610f03604051806080016040528060006001600160a01b03168152602001600060ff16815260200160608152602001600081525090565b815260200190600190039081610ecc5790505b50905060005b82811015610f775784610f2f828a612a72565b81518110610f3f57610f3f612a8b565b6020026020010151828281518110610f5957610f59612a8b565b60200260200101819052508080610f6f906129d0565b915050610f1c565b50979650505050505050565b610f8b6123a6565b6001600160a01b03811660009081526006602052604090205460ff16610fc35760405162461bcd60e51b81526004016105669061298a565b6001600160a01b0381166000908152600260205260408120805491610fe7836129d0565b919050555050565b610ff76123a6565b61100160006123d3565b565b3360009081526006602052604090205460ff16156110585760405162461bcd60e51b8152602060048201526012602482015271105b1c9958591e481c9959da5cdd195c995960721b6044820152606401610566565b886110955760405162461bcd60e51b815260206004820152600d60248201526c13985b59481c995c5d5a5c9959609a1b6044820152606401610566565b60328911156110d65760405162461bcd60e51b815260206004820152600d60248201526c4e616d6520746f6f206c6f6e6760981b6044820152606401610566565b6101f48711156111175760405162461bcd60e51b815260206004820152600c60248201526b42696f20746f6f206c6f6e6760a01b6044820152606401610566565b6040518061010001604052808b8b8080601f016020809104026020016040519081016040528093929190818152602001838380828437600092019190915250505090825250604080516020601f8c018190048102820181019092528a815291810191908b908b9081908401838280828437600092019190915250505090825250604080516020601f8a0181900481028201810190925288815291810191908990899081908401838280828437600092019190915250505090825250604080516020601f880181900481028201810190925286815291810191908790879081908401838280828437600092019190915250505090825250604080516020601f860181900481028201810190925284815291810191908590859081908401838280828437600092018290525093855250504260208085019190915260408085018490526060909401839052338352600190525020815181906112779082612b03565b506020820151600182019061128c9082612b03565b50604082015160028201906112a19082612b03565b50606082015160038201906112b69082612b03565b50608082015160048201906112cb9082612b03565b5060a082015160058083019190915560c08301516006928301805460e09095015115156101000261ff00199215159290921661ffff199095169490941717909255815460018181019093557f036b6384b5eca791c62761152d0c79bb0604c104a5fb6f4eb0703f3154bb3db00180546001600160a01b03191633908117909155600090815260209190915260408120805460ff19169092179091556008805491611374836129d0565b9190505550336001600160a01b03167fbf620853fd890bc166209817a64206f57de9aa2bc196bd5bab92d17a38d6515d8b8b426040516113b6939291906129e9565b60405180910390a250505050505050505050565b6113d26123a6565b6001600160a01b03811660009081526006602052604090205460ff1661140a5760405162461bcd60e51b81526004016105669061298a565b6001600160a01b03166000908152600160205260409020600601805460ff19169055565b6114366123a6565b6001600160a01b03821660009081526006602052604090205460ff1661146e5760405162461bcd60e51b81526004016105669061298a565b6001600160a01b0382166000908152600260205260408120805490918290611495836129d0565b9190505550818160010160008282546114ae9190612a72565b9091555050805460018201546040516001600160a01b038616927f80140d6bcee83a25999242a95412ea6b9754c623fc171e8d4c86c8392c053ad9926114fc92918252602082015260400190565b60405180910390a2505050565b6115116123a6565b6001600160a01b03166000908152600760205260409020805460ff19166001179055565b3360009081526007602052604090205460ff166115855760405162461bcd60e51b815260206004820152600e60248201526d2737ba1030903b32b934b334b2b960911b6044820152606401610566565b6001600160a01b03811660009081526006602052604090205460ff166115bd5760405162461bcd60e51b81526004016105669061298a565b6001600160a01b038116600081815260016020818152604092839020600601805460ff191690921790915590514281523392917f37de3092822e63cd91e4da6f9a4c2351b605e3f9d2f2cd592f4b11548c85080f910160405180910390a350565b6116266123a6565b6001600160a01b03831660009081526006602052604090205460ff1661165e5760405162461bcd60e51b81526004016105669061298a565b6001600160a01b038316600090815260016020526040902060060154610100900460ff16156116c05760405162461bcd60e51b815260206004820152600e60248201526d105b1c9958591e4818985b9b995960921b6044820152606401610566565b6001600160a01b03831660008181526001602052604090819020600601805461ff001916610100179055517fda8048c5cd155b819e1da70e1ae30ac383f22c17ae2f2e0334bbe8a10a0fbec6906114fc908590859042906129e9565b3360009081526006602052604090205460ff1661176c5760405162461bcd60e51b815260206004820152600e60248201526d139bdd081c9959da5cdd195c995960921b6044820152606401610566565b33600090815260016020526040902060060154610100900460ff16156117bd5760405162461bcd60e51b815260206004820152600660248201526510985b9b995960d21b6044820152606401610566565b886117fa5760405162461bcd60e51b815260206004820152600d60248201526c13985b59481c995c5d5a5c9959609a1b6044820152606401610566565b603289111561183b5760405162461bcd60e51b815260206004820152600d60248201526c4e616d6520746f6f206c6f6e6760981b6044820152606401610566565b6101f487111561187c5760405162461bcd60e51b815260206004820152600c60248201526b42696f20746f6f206c6f6e6760a01b6044820152606401610566565b336000908152600160205260409020806118978b8d83612bc3565b50600181016118a7898b83612bc3565b50600281016118b7878983612bc3565b50600381016118c7858783612bc3565b50600481016118d7838583612bc3565b5060405142815233907f03754aecf8745159503d95ad9d4b5e5ec503371279ddc036d4ac93cd953f9de29060200160405180910390a25050505050505050505050565b60016020526000908152604090208054819061193590612a22565b80601f016020809104026020016040519081016040528092919081815260200182805461196190612a22565b80156119ae5780601f10611983576101008083540402835291602001916119ae565b820191906000526020600020905b81548152906001019060200180831161199157829003601f168201915b5050505050908060010180546119c390612a22565b80601f01602080910402602001604051908101604052809291908181526020018280546119ef90612a22565b8015611a3c5780601f10611a1157610100808354040283529160200191611a3c565b820191906000526020600020905b815481529060010190602001808311611a1f57829003601f168201915b505050505090806002018054611a5190612a22565b80601f0160208091040260200160405190810160405280929190818152602001828054611a7d90612a22565b8015611aca5780601f10611a9f57610100808354040283529160200191611aca565b820191906000526020600020905b815481529060010190602001808311611aad57829003601f168201915b505050505090806003018054611adf90612a22565b80601f0160208091040260200160405190810160405280929190818152602001828054611b0b90612a22565b8015611b585780601f10611b2d57610100808354040283529160200191611b58565b820191906000526020600020905b815481529060010190602001808311611b3b57829003601f168201915b505050505090806004018054611b6d90612a22565b80601f0160208091040260200160405190810160405280929190818152602001828054611b9990612a22565b8015611be65780601f10611bbb57610100808354040283529160200191611be6565b820191906000526020600020905b815481529060010190602001808311611bc957829003601f168201915b50505050600583015460069093015491929160ff80821692506101009091041688565b6001600160a01b0381166000908152600260208181526040808420815160a0810183528154815260018201549381019390935292830154908201819052600383015460608301526004909201546080820152829182918291829190829015611c8d5760408201516060830151611c80906064612c84565b611c8a9190612c9b565b90505b815160208301516040840151608090940151919a909950919750919550909350915050565b6001600160a01b0381166000908152600260208181526040808420815160a0810183528154815260018201549381019390935292830154908201819052600383015460608301526004909201546080820152908203611d145750600092915050565b60408101516060820151611d29906064612c84565b610cc39190612c9b565b611d3b6123a6565b6001600160a01b03166000908152600760205260409020805460ff19169055565b60058181548110611d6c57600080fd5b6000918252602090912001546001600160a01b0316905081565b611d8e6123a6565b6001600160a01b03811660009081526006602052604090205460ff16611dc65760405162461bcd60e51b81526004016105669061298a565b6001600160a01b038116600090815260016020526040902060060154610100900460ff16611e235760405162461bcd60e51b815260206004820152600a602482015269139bdd0818985b9b995960b21b6044820152606401610566565b6001600160a01b03166000908152600160205260409020600601805461ff0019169055565b60608060006005805490508411611e5f5783611e63565b6005545b90508067ffffffffffffffff811115611e7e57611e7e612a5c565b604051908082528060200260200182016040528015611ea7578160200160208202803683370190505b5092508067ffffffffffffffff811115611ec357611ec3612a5c565b604051908082528060200260200182016040528015611eec578160200160208202803683370190505b50915060005b81811015611fcd5760058181548110611f0d57611f0d612a8b565b9060005260206000200160009054906101000a90046001600160a01b0316848281518110611f3d57611f3d612a8b565b60200260200101906001600160a01b031690816001600160a01b0316815250506002600060058381548110611f7457611f74612a8b565b60009182526020808320909101546001600160a01b031683528201929092526040019020600101548351849083908110611fb057611fb0612a8b565b602090810291909101015280611fc5816129d0565b915050611ef2565b5050915091565b611fdc6123a6565b6001600160a01b03811661200657604051631e4fbdf760e01b815260006004820152602401610566565b61200f816123d3565b50565b6001600160a01b03841660009081526006602052604090205460ff1661204a5760405162461bcd60e51b81526004016105669061298a565b6001600160a01b038416600090815260016020526040902060060154610100900460ff16156120ac5760405162461bcd60e51b815260206004820152600e60248201526d10dc99585d1bdc8818985b9b995960921b6044820152606401610566565b60018360ff16101580156120c4575060058360ff1611155b6121045760405162461bcd60e51b815260206004820152601160248201527053636f7265206d75737420626520312d3560781b6044820152606401610566565b6001600160a01b038416600090815260046020908152604080832033845290915290205460ff16156121685760405162461bcd60e51b815260206004820152600d60248201526c105b1c9958591e481c985d1959609a1b6044820152606401610566565b6001600160a01b03841633036121b75760405162461bcd60e51b815260206004820152601460248201527321b0b73737ba103930ba32903cb7bab939b2b63360611b6044820152606401610566565b6101f48111156121fc5760405162461bcd60e51b815260206004820152601060248201526f436f6d6d656e7420746f6f206c6f6e6760801b6044820152606401610566565b60036000856001600160a01b03166001600160a01b031681526020019081526020016000206040518060800160405280336001600160a01b031681526020018560ff16815260200184848080601f01602080910402602001604051908101604052809392919081815260200183838082843760009201829052509385525050426020938401525083546001818101865594825290829020835160039092020180549284015160ff16600160a01b026001600160a81b03199093166001600160a01b0390921691909117919091178155604082015191929091908201906122e29082612b03565b50606091909101516002918201556001600160a01b03851660008181526004602090815260408083203384528252808320805460ff19166001179055928252839052908120918201805491612336836129d0565b91905055508360ff168160030160008282546123529190612a72565b90915550506040805160ff8616815242602082015233916001600160a01b038816917f3b88c6a4d4543b69bba13705d8f1a0a72f3df25c470fefe6c23ccb2b5320bbfc910160405180910390a35050505050565b6000546001600160a01b031633146110015760405163118cdaa760e01b8152336004820152602401610566565b600080546001600160a01b038381166001600160a01b0319831681178455604051919092169283917f8be0079c531659141344cd1fd0a4f28419497f9722a3daafe3b4186f6b6457e09190a35050565b80356001600160a01b038116811461243a57600080fd5b919050565b60008083601f84011261245157600080fd5b50813567ffffffffffffffff81111561246957600080fd5b60208301915083602082850101111561248157600080fd5b9250929050565b60008060006040848603121561249d57600080fd5b6124a684612423565b9250602084013567ffffffffffffffff8111156124c257600080fd5b6124ce8682870161243f565b9497909650939450505050565b6000602082840312156124ed57600080fd5b610cc382612423565b6000815180845260005b8181101561251c57602081850181015186830182015201612500565b506000602082860101526020601f19601f83011685010191505092915050565b60006101008083526125508184018c6124f6565b90508281036020840152612564818b6124f6565b90508281036040840152612578818a6124f6565b9050828103606084015261258c81896124f6565b905082810360808401526125a081886124f6565b60a0840196909652505091151560c0830152151560e09091015295945050505050565b600080604083850312156125d657600080fd5b6125df83612423565b946020939093013593505050565b6001600160a01b038516815260ff8416602082015260806040820181905260009061261a908301856124f6565b905082606083015295945050505050565b6000806040838503121561263e57600080fd5b61264783612423565b915061265560208401612423565b90509250929050565b60008060006060848603121561267357600080fd5b83359250602084013591506040840135801515811461269157600080fd5b809150509250925092565b600081518084526020808501945080840160005b838110156126d55781516001600160a01b0316875295820195908201906001016126b0565b509495945050505050565b602081526000610cc3602083018461269c565b60008060006060848603121561270857600080fd5b61271184612423565b95602085013595506040909401359392505050565b60006020808301818452808551808352604092508286019150828160051b87010184880160005b838110156127b257888303603f19018552815180516001600160a01b031684528781015160ff168885015286810151608088860181905290612791828701826124f6565b6060938401519690930195909552509487019492509086019060010161274d565b509098975050505050505050565b60008060008060008060008060008060a08b8d0312156127df57600080fd5b8a3567ffffffffffffffff808211156127f757600080fd5b6128038e838f0161243f565b909c509a5060208d013591508082111561281c57600080fd5b6128288e838f0161243f565b909a50985060408d013591508082111561284157600080fd5b61284d8e838f0161243f565b909850965060608d013591508082111561286657600080fd5b6128728e838f0161243f565b909650945060808d013591508082111561288b57600080fd5b506128988d828e0161243f565b915080935050809150509295989b9194979a5092959850565b6000602082840312156128c357600080fd5b5035919050565b6040815260006128dd604083018561269c565b82810360208481019190915284518083528582019282019060005b81811015612914578451835293830193918301916001016128f8565b5090979650505050505050565b6000806000806060858703121561293757600080fd5b61294085612423565b9350602085013560ff8116811461295657600080fd5b9250604085013567ffffffffffffffff81111561297257600080fd5b61297e8782880161243f565b95989497509550505050565b60208082526016908201527510dc99585d1bdc881b9bdd081c9959da5cdd195c995960521b604082015260600190565b634e487b7160e01b600052601160045260246000fd5b6000600182016129e2576129e26129ba565b5060010190565b604081528260408201528284606083013760006060848301015260006060601f19601f8601168301019050826020830152949350505050565b600181811c90821680612a3657607f821691505b602082108103612a5657634e487b7160e01b600052602260045260246000fd5b50919050565b634e487b7160e01b600052604160045260246000fd5b80820180821115612a8557612a856129ba565b92915050565b634e487b7160e01b600052603260045260246000fd5b81810381811115612a8557612a856129ba565b601f821115612afe57600081815260208120601f850160051c81016020861015612adb5750805b601f850160051c820191505b81811015612afa57828155600101612ae7565b5050505b505050565b815167ffffffffffffffff811115612b1d57612b1d612a5c565b612b3181612b2b8454612a22565b84612ab4565b602080601f831160018114612b665760008415612b4e5750858301515b600019600386901b1c1916600185901b178555612afa565b600085815260208120601f198616915b82811015612b9557888601518255948401946001909101908401612b76565b5085821015612bb35787850151600019600388901b60f8161c191681555b5050505050600190811b01905550565b67ffffffffffffffff831115612bdb57612bdb612a5c565b612bef83612be98354612a22565b83612ab4565b6000601f841160018114612c235760008515612c0b5750838201355b600019600387901b1c1916600186901b178355612c7d565b600083815260209020601f19861690835b82811015612c545786850135825560209485019460019092019101612c34565b5086821015612c715760001960f88860031b161c19848701351681555b505060018560011b0183555b5050505050565b8082028115828204841417612a8557612a856129ba565b600082612cb857634e487b7160e01b600052601260045260246000fd5b50049056fea2646970667358221220c32e4c7f2234c1f60abad6f213d3f0d9b941134852935f2bf8285232d90c056b64736f6c63430008140033",
  "linkReferences": {},
  "deployedLinkReferences": {}
}