{
  "_format": "hh-sol-artifact-1",
  "contractName": "FeeCollector",
  "sourceName": "contracts/FeeCollector.sol",
  "abi": [
    {
      "inputs": [
        {
          "internalType": "address",
          "name": "_teamWallet",
          "type": "address"
        },
        {
          "internalType": "address",
          "name": "_yieldDistributor",
          "type": "address"
        }
      ],
      "stateMutability": "nonpayable",
      "type": "constructor"
    },
    {
      "inputs": [
        {
          "internalType": "address",
          "name": "owner",
          "type": "address"
        }
      ],
      "name": "OwnableInvalidOwner",
      "type": "error"
    },
    {
      "inputs": [
        {
          "internalType": "address",
          "name": "account",
          "type": "address"
        }
      ],
      "name": "OwnableUnauthorizedAccount",
      "type": "error"
    },
    {
      "inputs": [],
      "name": "ReentrancyGuardReentrantCall",
      "type": "error"
    },
    {
      "anonymous": false,
      "inputs": [
        {
          "indexed": true,
          "internalType": "address",
          "name": "from",
          "type": "address"
        },
        {
          "indexed": false,
          "internalType": "uint256",
          "name": "amount",
          "type": "uint256"
        },
        {
          "indexed": false,
          "internalType": "uint256",
          "name": "teamAmount",
          "type": "uint256"
        },
        {
          "indexed": false,
          "internalType": "uint256",
          "name": "yieldAmount",
          "type": "uint256"
        }
      ],
      "name": "FeeDeposited",
      "type": "event"
    },
    {
      "anonymous": false,
      "inputs": [
        {
          "indexed": true,
          "internalType": "address",
          "name": "previousOwner",
          "type": "address"
        },
        {
          "indexed": true,
          "internalType": "address",
          "name": "newOwner",
          "type": "address"
        }
      ],
      "name": "OwnershipTransferred",
      "type": "event"
    },
    {
      "anonymous": false,
      "inputs": [
        {
          "indexed": true,
          "internalType": "address",
          "name": "to",
          "type": "address"
        },
        {
          "indexed": false,
          "internalType": "uint256",
          "name": "amount",
          "type": "uint256"
        }
      ],
      "name": "TeamFeesWithdrawn",
      "type": "event"
    },
    {
      "anonymous": false,
      "inputs": [
        {
          "indexed": true,
          "internalType": "address",
          "name": "oldWallet",
          "type": "address"
        },
        {
          "indexed": true,
          "internalType": "address",
          "name": "newWallet",
          "type": "address"
        }
      ],
      "name": "TeamWalletUpdated",
      "type": "event"
    },
    {
      "anonymous": false,
      "inputs": [
        {
          "indexed": true,
          "internalType": "address",
          "name": "oldDistributor",
          "type": "address"
        },
        {
          "indexed": true,
          "internalType": "address",
          "name": "newDistributor",
          "type": "address"
        }
      ],
      "name": "YieldDistributorUpdated",
      "type": "event"
    },
    {
      "anonymous": false,
      "inputs": [
        {
          "indexed": true,
          "internalType": "address",
          "name": "token",
          "type": "address"
        },
        {
          "indexed": false,
          "internalType": "uint256",
          "name": "amount",
          "type": "uint256"
        }
      ],
      "name": "YieldSent",
      "type": "event"
    },
    {
      "inputs": [],
      "name": "depositFee",
      "outputs": [],
      "stateMutability": "payable",
      "type": "function"
    },
    {
      "inputs": [],
      "name": "emergencyWithdraw",
      "outputs": [],
      "stateMutability": "nonpayable",
      "type": "function"
    },
    {
      "inputs": [],
      "name": "getBalances",
      "outputs": [
        {
          "internalType": "uint256",
          "name": "team",
          "type": "uint256"
        },
        {
          "internalType": "uint256",
          "name": "yield",
          "type": "uint256"
        }
      ],
      "stateMutability": "view",
      "type": "function"
    },
    {
      "inputs": [],
      "name": "getStats",
      "outputs": [
        {
          "internalType": "uint256",
          "name": "totalCollected",
          "type": "uint256"
        },
        {
          "internalType": "uint256",
          "name": "totalWithdrawn",
          "type": "uint256"
        },
        {
          "internalType": "uint256",
          "name": "totalSent",
          "type": "uint256"
        },
        {
          "internalType": "uint256",
          "name": "lastWithdrawal",
          "type": "uint256"
        },
        {
          "internalType": "uint256",
          "name": "nextWithdrawal",
          "type": "uint256"
        }
      ],
      "stateMutability": "view",
      "type": "function"
    },
    {
      "inputs": [],
      "name": "getWithdrawalInfo",
      "outputs": [
        {
          "internalType": "bool",
          "name": "canWithdraw",
          "type": "bool"
        },
        {
          "internalType": "uint256",
          "name": "timeLeft",
          "type": "uint256"
        }
      ],
      "stateMutability": "view",
      "type": "function"
    },
    {
      "inputs": [],
      "name": "lastWithdrawalTime",
      "outputs": [
        {
          "internalType": "uint256",
          "name": "",
          "type": "uint256"
        }
      ],
      "stateMutability": "view",
      "type": "function"
    },
    {
      "inputs": [],
      "name": "owner",
      "outputs": [
        {
          "internalType": "address",
          "name": "",
          "type": "address"
        }
      ],
      "stateMutability": "view",
      "type": "function"
    },
    {
      "inputs": [],
      "name": "pause",
      "outputs": [],
      "stateMutability": "nonpayable",
      "type": "function"
    },
    {
      "inputs": [],
      "name": "renounceOwnership",
      "outputs": [],
      "stateMutability": "nonpayable",
      "type": "function"
    },
    {
      "inputs": [],
      "name": "resetWithdrawalLock",
      "outputs": [],
      "stateMutability": "nonpayable",
      "type": "function"
    },
    {
      "inputs": [
        {
          "internalType": "address",
          "name": "token",
          "type": "address"
        }
      ],
      "name": "sendYieldToDistributor",
      "outputs": [],
      "stateMutability": "nonpayable",
      "type": "function"
    },
    {
      "inputs": [],
      "name": "teamBalance",
      "outputs": [
        {
          "internalType": "uint256",
          "name": "",
          "type": "uint256"
        }
      ],
      "stateMutability": "view",
      "type": "function"
    },
    {
      "inputs": [],
      "name": "teamSplit",
      "outputs": [
        {
          "internalType": "uint256",
          "name": "",
          "type": "uint256"
        }
      ],
      "stateMutability": "view",
      "type": "function"
    },
    {
      "inputs": [],
      "name": "teamWallet",
      "outputs": [
        {
          "internalType": "address",
          "name": "",
          "type": "address"
        }
      ],
      "stateMutability": "view",
      "type": "function"
    },
    {
      "inputs": [],
      "name": "totalFeesCollected",
      "outputs": [
        {
          "internalType": "uint256",
          "name": "",
          "type": "uint256"
        }
      ],
      "stateMutability": "view",
      "type": "function"
    },
    {
      "inputs": [],
      "name": "totalTeamWithdrawn",
      "outputs": [
        {
          "internalType": "uint256",
          "name": "",
          "type": "uint256"
        }
      ],
      "stateMutability": "view",
      "type": "function"
    },
    {
      "inputs": [],
      "name": "totalYieldSent",
      "outputs": [
        {
          "internalType": "uint256",
          "name": "",
          "type": "uint256"
        }
      ],
      "stateMutability": "view",
      "type": "function"
    },
    {
      "inputs": [
        {
          "internalType": "address",
          "name": "newOwner",
          "type": "address"
        }
      ],
      "name": "transferOwnership",
      "outputs": [],
      "stateMutability": "nonpayable",
      "type": "function"
    },
    {
      "inputs": [],
      "name": "unpause",
      "outputs": [],
      "stateMutability": "nonpayable",
      "type": "function"
    },
    {
      "inputs": [
        {
          "internalType": "uint256",
          "name": "_minAmount",
          "type": "uint256"
        }
      ],
      "name": "updateMinPaymentAmount",
      "outputs": [],
      "stateMutability": "nonpayable",
      "type": "function"
    },
    {
      "inputs": [
        {
          "internalType": "address",
          "name": "_teamWallet",
          "type": "address"
        }
      ],
      "name": "updateTeamWallet",
      "outputs": [],
      "stateMutability": "nonpayable",
      "type": "function"
    },
    {
      "inputs": [
        {
          "internalType": "address",
          "name": "_yieldDistributor",
          "type": "address"
        }
      ],
      "name": "updateYieldDistributor",
      "outputs": [],
      "stateMutability": "nonpayable",
      "type": "function"
    },
    {
      "inputs": [],
      "name": "withdrawTeamFees",
      "outputs": [],
      "stateMutability": "nonpayable",
      "type": "function"
    },
    {
      "inputs": [],
      "name": "withdrawalLockPeriod",
      "outputs": [
        {
          "internalType": "uint256",
          "name": "",
          "type": "uint256"
        }
      ],
      "stateMutability": "view",
      "type": "function"
    },
    {
      "inputs": [],
      "name": "yieldBalance",
      "outputs": [
        {
          "internalType": "uint256",
          "name": "",
          "type": "uint256"
        }
      ],
      "stateMutability": "view",
      "type": "function"
    },
    {
      "inputs": [],
      "name": "yieldDistributor",
      "outputs": [
        {
          "internalType": "address",
          "name": "",
          "type": "address"
        }
      ],
      "stateMutability": "view",
      "type": "function"
    },
    {
      "inputs": [],
      "name": "yieldSplit",
      "outputs": [
        {
          "internalType": "uint256",
          "name": "",
          "type": "uint256"
        }
      ],
      "stateMutability": "view",
      "type": "function"
    },
    {
      "stateMutability": "payable",
      "type": "receive"
    }
  ],
  "bytecode": "0x6080604052611770600455610fa060055562093a8060065534801561002357600080fd5b5060405162000fd638038062000fd6833981016040819052610044916101c6565b338061006b57604051631e4fbdf760e01b8152600060048201526024015b60405180910390fd5b6100748161015a565b50600180556001600160a01b0382166100cf5760405162461bcd60e51b815260206004820152601360248201527f496e76616c6964207465616d2077616c6c6574000000000000000000000000006044820152606401610062565b6001600160a01b0381166101255760405162461bcd60e51b815260206004820152601960248201527f496e76616c6964207969656c64206469737472696275746f72000000000000006044820152606401610062565b600280546001600160a01b039384166001600160a01b03199182161790915560038054929093169116179055426009556101f9565b600080546001600160a01b038381166001600160a01b0319831681178455604051919092169283917f8be0079c531659141344cd1fd0a4f28419497f9722a3daafe3b4186f6b6457e09190a35050565b80516001600160a01b03811681146101c157600080fd5b919050565b600080604083850312156101d957600080fd5b6101e2836101aa565b91506101f0602084016101aa565b90509250929050565b610dcd80620002096000396000f3fe60806040526004361061019f5760003560e01c80638484f511116100ec578063c59d48471161008a578063db2e21bc11610064578063db2e21bc14610445578063e2c8f5821461045a578063ecf81ff41461046f578063f2fde38b1461048557600080fd5b8063c59d4847146103d2578063cf062f0d1461040f578063d7b02c4b1461042557600080fd5b80638da5cb5b116100c65780638da5cb5b1461035f5780639c797ca61461037d578063a38c2c3d14610392578063a858ff03146103b257600080fd5b80638484f5111461031d578063852ace601461033357806389e852171461034957600080fd5b80635fc09f3f1161015957806367a527931161013357806367a52793146102e0578063715018a6146102e85780637cb332bb146102fd5780638456cb591461022557600080fd5b80635fc09f3f1461029e5780635fdb3103146102b457806360c6d8ae146102ca57600080fd5b8062113e08146101b457806334a014dc146101e15780633cf0974b146102055780633f4ba83a1461022557806349e06dc61461023a578063599270441461026657600080fd5b366101af576101ad346104a5565b005b600080fd5b3480156101c057600080fd5b50600754600854604080519283526020830191909152015b60405180910390f35b3480156101ed57600080fd5b506101f760095481565b6040519081526020016101d8565b34801561021157600080fd5b506101ad610220366004610cd3565b610563565b34801561023157600080fd5b506101ad61056e565b34801561024657600080fd5b5061024f610578565b6040805192151583526020830191909152016101d8565b34801561027257600080fd5b50600254610286906001600160a01b031681565b6040516001600160a01b0390911681526020016101d8565b3480156102aa57600080fd5b506101f7600b5481565b3480156102c057600080fd5b506101f760045481565b3480156102d657600080fd5b506101f7600a5481565b6101ad6105c4565b3480156102f457600080fd5b506101ad610617565b34801561030957600080fd5b506101ad610318366004610cec565b610629565b34801561032957600080fd5b506101f760055481565b34801561033f57600080fd5b506101f760065481565b34801561035557600080fd5b506101f760075481565b34801561036b57600080fd5b506000546001600160a01b0316610286565b34801561038957600080fd5b506101ad6106cb565b34801561039e57600080fd5b50600354610286906001600160a01b031681565b3480156103be57600080fd5b506101ad6103cd366004610cec565b6108b9565b3480156103de57600080fd5b506103e7610a1c565b604080519586526020860194909452928401919091526060830152608082015260a0016101d8565b34801561041b57600080fd5b506101f760085481565b34801561043157600080fd5b506101ad610440366004610cec565b610a51565b34801561045157600080fd5b506101ad610af3565b34801561046657600080fd5b506101ad610be2565b34801561047b57600080fd5b506101f7600c5481565b34801561049157600080fd5b506101ad6104a0366004610cec565b610bf1565b6000612710600454836104b89190610d32565b6104c29190610d4f565b905060006104d08284610d71565b905081600760008282546104e49190610d84565b9250508190555080600860008282546104fd9190610d84565b9250508190555082600a60008282546105169190610d84565b9091555050604080518481526020810184905290810182905233907fef6d36f938944228983d91489bf514be66c8dbdd84b324770dd59089a006c3b99060600160405180910390a2505050565b61056b610c2c565b50565b610576610c2c565b565b600080600060065460095461058d9190610d84565b90508042101580156105a157506000600754115b92508042106105b35760009150509091565b6105bd4282610d71565b9150509091565b6000341161060e5760405162461bcd60e51b81526020600482015260126024820152710416d6f756e74206d757374206265203e20360741b60448201526064015b60405180910390fd5b610576346104a5565b61061f610c2c565b6105766000610c59565b610631610c2c565b6001600160a01b0381166106795760405162461bcd60e51b815260206004820152600f60248201526e496e76616c6964206164647265737360881b6044820152606401610605565b600280546001600160a01b038381166001600160a01b0319831681179093556040519116919082907fd9a2a08302ed3220f4e646ff99d6780d87e27baddf1af05679dc930ce811309590600090a35050565b6106d3610ca9565b6002546001600160a01b0316331461071f5760405162461bcd60e51b815260206004820152600f60248201526e139bdd081d19585b481dd85b1b195d608a1b6044820152606401610605565b60065460095461072f9190610d84565b4210156107725760405162461bcd60e51b815260206004820152601160248201527015da5d1a191c985dd85b081b1bd8dad959607a1b6044820152606401610605565b6000600754116107b15760405162461bcd60e51b815260206004820152600a6024820152694e6f2062616c616e636560b01b6044820152606401610605565b6007805460009182905542600955600b8054919283926107d2908490610d84565b90915550506002546040516000916001600160a01b03169083908381818185875af1925050503d8060008114610824576040519150601f19603f3d011682016040523d82523d6000602084013e610829565b606091505b505090508061086c5760405162461bcd60e51b815260206004820152600f60248201526e151c985b9cd9995c8819985a5b1959608a1b6044820152606401610605565b6002546040518381526001600160a01b03909116907f86ba47a73034426205feb9949e893e25ba65fcfaff2b585e9777e852ef2d03049060200160405180910390a2505061057660018055565b6108c1610ca9565b6001600160a01b0381166109075760405162461bcd60e51b815260206004820152600d60248201526c24b73b30b634b2103a37b5b2b760991b6044820152606401610605565b60006008541161094c5760405162461bcd60e51b815260206004820152601060248201526f139bc81e5a595b19081d1bc81cd95b9960821b6044820152606401610605565b60088054600091829055600c805491928392610969908490610d84565b909155505060035460405163e2636a2d60e01b81526001600160a01b0384811660048301529091169063e2636a2d9083906024016000604051808303818588803b1580156109b657600080fd5b505af11580156109ca573d6000803e3d6000fd5b5050505050816001600160a01b03167fca27be4148462da485a9bf3333a551f69f1f362ca697e35ee44e2e1064911fc882604051610a0a91815260200190565b60405180910390a25061056b60018055565b6000806000806000600a54600b54600c54600954600654600954610a409190610d84565b945094509450945094509091929394565b610a59610c2c565b6001600160a01b038116610aa15760405162461bcd60e51b815260206004820152600f60248201526e496e76616c6964206164647265737360881b6044820152606401610605565b600380546001600160a01b038381166001600160a01b0319831681179093556040519116919082907feb35f0f0a95d2801f2d360efbbf9ee54c1eb3a1801fa152bc4d4cf9ee10a089090600090a35050565b610afb610c2c565b4780610b3f5760405162461bcd60e51b81526020600482015260136024820152724e6f7468696e6720746f20776974686472617760681b6044820152606401610605565b60006007819055600881905580546040516001600160a01b039091169083908381818185875af1925050503d8060008114610b96576040519150601f19603f3d011682016040523d82523d6000602084013e610b9b565b606091505b5050905080610bde5760405162461bcd60e51b815260206004820152600f60248201526e151c985b9cd9995c8819985a5b1959608a1b6044820152606401610605565b5050565b610bea610c2c565b6000600955565b610bf9610c2c565b6001600160a01b038116610c2357604051631e4fbdf760e01b815260006004820152602401610605565b61056b81610c59565b6000546001600160a01b031633146105765760405163118cdaa760e01b8152336004820152602401610605565b600080546001600160a01b038381166001600160a01b0319831681178455604051919092169283917f8be0079c531659141344cd1fd0a4f28419497f9722a3daafe3b4186f6b6457e09190a35050565b600260015403610ccc57604051633ee5aeb560e01b815260040160405180910390fd5b6002600155565b600060208284031215610ce557600080fd5b5035919050565b600060208284031215610cfe57600080fd5b81356001600160a01b0381168114610d1557600080fd5b9392505050565b634e487b7160e01b600052601160045260246000fd5b8082028115828204841417610d4957610d49610d1c565b92915050565b600082610d6c57634e487b7160e01b600052601260045260246000fd5b500490565b81810381811115610d4957610d49610d1c565b80820180821115610d4957610d49610d1c56fea264697066735822122061e67c7af44c33c9e5751d9d79733c9200790c9fad1ce0009c5e78e08f4546de64736f6c63430008140033",
  "linkReferences": {},
  "deployedLinkReferences": {}
}