{
  "_format": "hh-sol-artifact-1",
  "contractName": "LiquidityLocker",
  "sourceName": "contracts/LiquidityLocker.sol",
  "abi": [
    {
      "inputs": [
        {
          "internalType": "address",
          "name": "_penaltyReceiver",
          "type": "address"
        }
      ],
      "stateMutability": "nonpayable",
      "type": "constructor"
    },
    {
      "inputs": [
        {
          "internalType": "address",
          "name": "owner",
          "type": "address"
        }
      ],
      "name": "OwnableInvalidOwner",
      "type": "error"
    },
    {
      "inputs": [
        {
          "internalType": "address",
          "name": "account",
          "type": "address"
        }
      ],
      "name": "OwnableUnauthorizedAccount",
      "type": "error"
    },
    {
      "inputs": [],
      "name": "ReentrancyGuardReentrantCall",
      "type": "error"
    },
    {
      "anonymous": false,
      "inputs": [
        {
          "indexed": true,
          "internalType": "uint256",
          "name": "lockId",
          "type": "uint256"
        },
        {
          "indexed": true,
          "internalType": "address",
          "name": "owner",
          "type": "address"
        },
        {
          "indexed": false,
          "internalType": "uint256",
          "name": "amount",
          "type": "uint256"
        },
        {
          "indexed": false,
          "internalType": "uint256",
          "name": "penalty",
          "type": "uint256"
        }
      ],
      "name": "EmergencyUnlock",
      "type": "event"
    },
    {
      "anonymous": false,
      "inputs": [
        {
          "indexed": true,
          "internalType": "uint256",
          "name": "lockId",
          "type": "uint256"
        },
        {
          "indexed": true,
          "internalType": "address",
          "name": "token",
          "type": "address"
        },
        {
          "indexed": true,
          "internalType": "address",
          "name": "owner",
          "type": "address"
        },
        {
          "indexed": false,
          "internalType": "uint256",
          "name": "amount",
          "type": "uint256"
        },
        {
          "indexed": false,
          "internalType": "uint256",
          "name": "unlockTime",
          "type": "uint256"
        },
        {
          "indexed": false,
          "internalType": "string",
          "name": "description",
          "type": "string"
        }
      ],
      "name": "LiquidityLocked",
      "type": "event"
    },
    {
      "anonymous": false,
      "inputs": [
        {
          "indexed": true,
          "internalType": "uint256",
          "name": "lockId",
          "type": "uint256"
        },
        {
          "indexed": true,
          "internalType": "address",
          "name": "token",
          "type": "address"
        },
        {
          "indexed": true,
          "internalType": "address",
          "name": "owner",
          "type": "address"
        },
        {
          "indexed": false,
          "internalType": "uint256",
          "name": "amount",
          "type": "uint256"
        }
      ],
      "name": "LiquidityUnlocked",
      "type": "event"
    },
    {
      "anonymous": false,
      "inputs": [
        {
          "indexed": true,
          "internalType": "address",
          "name": "previousOwner",
          "type": "address"
        },
        {
          "indexed": true,
          "internalType": "address",
          "name": "newOwner",
          "type": "address"
        }
      ],
      "name": "OwnershipTransferred",
      "type": "event"
    },
    {
      "anonymous": false,
      "inputs": [
        {
          "indexed": true,
          "internalType": "address",
          "name": "oldReceiver",
          "type": "address"
        },
        {
          "indexed": true,
          "internalType": "address",
          "name": "newReceiver",
          "type": "address"
        }
      ],
      "name": "PenaltyReceiverUpdated",
      "type": "event"
    },
    {
      "inputs": [],
      "name": "EMERGENCY_PENALTY_PERCENT",
      "outputs": [
        {
          "internalType": "uint256",
          "name": "",
          "type": "uint256"
        }
      ],
      "stateMutability": "view",
      "type": "function"
    },
    {
      "inputs": [],
      "name": "MIN_LOCK_DURATION",
      "outputs": [
        {
          "internalType": "uint256",
          "name": "",
          "type": "uint256"
        }
      ],
      "stateMutability": "view",
      "type": "function"
    },
    {
      "inputs": [],
      "name": "PENALTY_DENOMINATOR",
      "outputs": [
        {
          "internalType": "uint256",
          "name": "",
          "type": "uint256"
        }
      ],
      "stateMutability": "view",
      "type": "function"
    },
    {
      "inputs": [
        {
          "internalType": "uint256",
          "name": "lockId",
          "type": "uint256"
        }
      ],
      "name": "canUnlock",
      "outputs": [
        {
          "internalType": "bool",
          "name": "",
          "type": "bool"
        }
      ],
      "stateMutability": "view",
      "type": "function"
    },
    {
      "inputs": [
        {
          "internalType": "uint256",
          "name": "lockId",
          "type": "uint256"
        }
      ],
      "name": "emergencyUnlock",
      "outputs": [],
      "stateMutability": "nonpayable",
      "type": "function"
    },
    {
      "inputs": [
        {
          "internalType": "uint256",
          "name": "lockId",
          "type": "uint256"
        },
        {
          "internalType": "uint256",
          "name": "additionalDuration",
          "type": "uint256"
        }
      ],
      "name": "extendLock",
      "outputs": [],
      "stateMutability": "nonpayable",
      "type": "function"
    },
    {
      "inputs": [
        {
          "internalType": "address",
          "name": "user",
          "type": "address"
        }
      ],
      "name": "getActiveLocks",
      "outputs": [
        {
          "internalType": "uint256[]",
          "name": "",
          "type": "uint256[]"
        }
      ],
      "stateMutability": "view",
      "type": "function"
    },
    {
      "inputs": [
        {
          "internalType": "uint256",
          "name": "lockId",
          "type": "uint256"
        }
      ],
      "name": "getLockInfo",
      "outputs": [
        {
          "internalType": "address",
          "name": "token",
          "type": "address"
        },
        {
          "internalType": "address",
          "name": "owner",
          "type": "address"
        },
        {
          "internalType": "uint256",
          "name": "amount",
          "type": "uint256"
        },
        {
          "internalType": "uint256",
          "name": "lockTime",
          "type": "uint256"
        },
        {
          "internalType": "uint256",
          "name": "unlockTime",
          "type": "uint256"
        },
        {
          "internalType": "bool",
          "name": "withdrawn",
          "type": "bool"
        },
        {
          "internalType": "string",
          "name": "description",
          "type": "string"
        },
        {
          "internalType": "uint256",
          "name": "timeRemaining",
          "type": "uint256"
        }
      ],
      "stateMutability": "view",
      "type": "function"
    },
    {
      "inputs": [
        {
          "internalType": "uint256[]",
          "name": "lockIds",
          "type": "uint256[]"
        }
      ],
      "name": "getMultipleLocks",
      "outputs": [
        {
          "components": [
            {
              "internalType": "address",
              "name": "token",
              "type": "address"
            },
            {
              "internalType": "address",
              "name": "owner",
              "type": "address"
            },
            {
              "internalType": "uint256",
              "name": "amount",
              "type": "uint256"
            },
            {
              "internalType": "uint256",
              "name": "lockTime",
              "type": "uint256"
            },
            {
              "internalType": "uint256",
              "name": "unlockTime",
              "type": "uint256"
            },
            {
              "internalType": "bool",
              "name": "withdrawn",
              "type": "bool"
            },
            {
              "internalType": "string",
              "name": "description",
              "type": "string"
            }
          ],
          "internalType": "struct LiquidityLocker.Lock[]",
          "name": "",
          "type": "tuple[]"
        }
      ],
      "stateMutability": "view",
      "type": "function"
    },
    {
      "inputs": [
        {
          "internalType": "address",
          "name": "token",
          "type": "address"
        }
      ],
      "name": "getTotalLocked",
      "outputs": [
        {
          "internalType": "uint256",
          "name": "",
          "type": "uint256"
        }
      ],
      "stateMutability": "view",
      "type": "function"
    },
    {
      "inputs": [
        {
          "internalType": "address",
          "name": "user",
          "type": "address"
        }
      ],
      "name": "getUserLocks",
      "outputs": [
        {
          "internalType": "uint256[]",
          "name": "",
          "type": "uint256[]"
        }
      ],
      "stateMutability": "view",
      "type": "function"
    },
    {
      "inputs": [
        {
          "internalType": "uint256",
          "name": "lockId",
          "type": "uint256"
        },
        {
          "internalType": "uint256",
          "name": "amount",
          "type": "uint256"
        }
      ],
      "name": "increaseLock",
      "outputs": [],
      "stateMutability": "nonpayable",
      "type": "function"
    },
    {
      "inputs": [],
      "name": "lockIdCounter",
      "outputs": [
        {
          "internalType": "uint256",
          "name": "",
          "type": "uint256"
        }
      ],
      "stateMutability": "view",
      "type": "function"
    },
    {
      "inputs": [
        {
          "internalType": "address",
          "name": "token",
          "type": "address"
        },
        {
          "internalType": "uint256",
          "name": "amount",
          "type": "uint256"
        },
        {
          "internalType": "uint256",
          "name": "duration",
          "type": "uint256"
        },
        {
          "internalType": "string",
          "name": "description",
          "type": "string"
        }
      ],
      "name": "lockLiquidity",
      "outputs": [
        {
          "internalType": "uint256",
          "name": "",
          "type": "uint256"
        }
      ],
      "stateMutability": "nonpayable",
      "type": "function"
    },
    {
      "inputs": [
        {
          "internalType": "uint256",
          "name": "",
          "type": "uint256"
        }
      ],
      "name": "locks",
      "outputs": [
        {
          "internalType": "address",
          "name": "token",
          "type": "address"
        },
        {
          "internalType": "address",
          "name": "owner",
          "type": "address"
        },
        {
          "internalType": "uint256",
          "name": "amount",
          "type": "uint256"
        },
        {
          "internalType": "uint256",
          "name": "lockTime",
          "type": "uint256"
        },
        {
          "internalType": "uint256",
          "name": "unlockTime",
          "type": "uint256"
        },
        {
          "internalType": "bool",
          "name": "withdrawn",
          "type": "bool"
        },
        {
          "internalType": "string",
          "name": "description",
          "type": "string"
        }
      ],
      "stateMutability": "view",
      "type": "function"
    },
    {
      "inputs": [],
      "name": "owner",
      "outputs": [
        {
          "internalType": "address",
          "name": "",
          "type": "address"
        }
      ],
      "stateMutability": "view",
      "type": "function"
    },
    {
      "inputs": [],
      "name": "penaltyReceiver",
      "outputs": [
        {
          "internalType": "address",
          "name": "",
          "type": "address"
        }
      ],
      "stateMutability": "view",
      "type": "function"
    },
    {
      "inputs": [],
      "name": "renounceOwnership",
      "outputs": [],
      "stateMutability": "nonpayable",
      "type": "function"
    },
    {
      "inputs": [
        {
          "internalType": "address",
          "name": "token",
          "type": "address"
        },
        {
          "internalType": "uint256",
          "name": "amount",
          "type": "uint256"
        }
      ],
      "name": "rescueTokens",
      "outputs": [],
      "stateMutability": "nonpayable",
      "type": "function"
    },
    {
      "inputs": [
        {
          "internalType": "address",
          "name": "_penaltyReceiver",
          "type": "address"
        }
      ],
      "name": "setPenaltyReceiver",
      "outputs": [],
      "stateMutability": "nonpayable",
      "type": "function"
    },
    {
      "inputs": [
        {
          "internalType": "address",
          "name": "",
          "type": "address"
        }
      ],
      "name": "totalLocked",
      "outputs": [
        {
          "internalType": "uint256",
          "name": "",
          "type": "uint256"
        }
      ],
      "stateMutability": "view",
      "type": "function"
    },
    {
      "inputs": [
        {
          "internalType": "address",
          "name": "newOwner",
          "type": "address"
        }
      ],
      "name": "transferOwnership",
      "outputs": [],
      "stateMutability": "nonpayable",
      "type": "function"
    },
    {
      "inputs": [
        {
          "internalType": "uint256",
          "name": "lockId",
          "type": "uint256"
        }
      ],
      "name": "unlock",
      "outputs": [],
      "stateMutability": "nonpayable",
      "type": "function"
    },
    {
      "inputs": [
        {
          "internalType": "address",
          "name": "",
          "type": "address"
        },
        {
          "internalType": "uint256",
          "name": "",
          "type": "uint256"
        }
      ],
      "name": "userLocks",
      "outputs": [
        {
          "internalType": "uint256",
          "name": "",
          "type": "uint256"
        }
      ],
      "stateMutability": "view",
      "type": "function"
    }
  ],
  "bytecode": "0x60806040523480156200001157600080fd5b50604051620021233803806200212383398101604081905262000034916200013a565b33806200005c57604051631e4fbdf760e01b8152600060048201526024015b60405180910390fd5b6200006781620000ea565b50600180556001600160a01b038116620000c45760405162461bcd60e51b815260206004820152601860248201527f496e76616c69642070656e616c74792072656365697665720000000000000000604482015260640162000053565b600680546001600160a01b0319166001600160a01b03929092169190911790556200016c565b600080546001600160a01b038381166001600160a01b0319831681178455604051919092169283917f8be0079c531659141344cd1fd0a4f28419497f9722a3daafe3b4186f6b6457e09190a35050565b6000602082840312156200014d57600080fd5b81516001600160a01b03811681146200016557600080fd5b9392505050565b611fa7806200017c6000396000f3fe608060405234801561001057600080fd5b50600436106101585760003560e01c8063aa33fedb116100c3578063d8fb93371161007c578063d8fb9337146102ec578063d94a7af51461030c578063e1b7fd421461032f578063f0e5929114610342578063f2fde38b14610355578063f4dadc611461036857600080fd5b8063aa33fedb1461026d578063afae883e14610280578063b079331314610289578063bc5542c01461029c578063c9102afd146102a5578063cdfab343146102cc57600080fd5b806361496d591161011557806361496d59146101fd5780636198e33914610210578063715018a61461022357806378b4330f1461022b5780638da5cb5b14610235578063a293e03c1461025a57600080fd5b806305c77a3c1461015d578063070d66bf1461019957806321778fbc146101ae57806323a35de9146101b757806357376198146101d75780635e70a6dc146101ea575b600080fd5b61018661016b36600461188d565b6001600160a01b031660009081526005602052604090205490565b6040519081526020015b60405180910390f35b6101ac6101a73660046118a8565b61038e565b005b6101866107d081565b6101ca6101c536600461188d565b6104b2565b60405161019091906118ca565b6101ac6101e536600461190e565b61051e565b6101ac6101f83660046118a8565b610693565b6101ca61020b36600461188d565b610866565b6101ac61021e366004611938565b610a26565b6101ac610be5565b61018662278d0081565b6000546001600160a01b03165b6040516001600160a01b039091168152602001610190565b610186610268366004611951565b610bf9565b61018661027b36600461190e565b610f35565b61018660025481565b6101ac610297366004611938565b610f66565b61018661271081565b6102b86102b3366004611938565b611181565b604051610190989796959493929190611a2b565b6102df6102da366004611a8b565b6112f4565b6040516101909190611b00565b6101866102fa36600461188d565b60056020526000908152604090205481565b61031f61031a366004611938565b6114fa565b6040519015158152602001610190565b600654610242906001600160a01b031681565b6101ac61035036600461188d565b611615565b6101ac61036336600461188d565b6116b7565b61037b610376366004611938565b6116f2565b6040516101909796959493929190611bb7565b600082815260036020526040902060018101546001600160a01b031633146103d15760405162461bcd60e51b81526004016103c890611c09565b60405180910390fd5b600581015460ff16156103f65760405162461bcd60e51b81526004016103c890611c31565b6000821161043d5760405162461bcd60e51b815260206004820152601460248201527304475726174696f6e206d757374206265203e20360641b60448201526064016103c8565b818160040160008282546104519190611c72565b909155505080546002820154600483015460405133936001600160a01b03169287927f2009a104bc5faf5183965f152dc1bc19acef30255f62bf0d047b6fa8e1ca1b29926104a59291906006890190611cbf565b60405180910390a4505050565b6001600160a01b03811660009081526004602090815260409182902080548351818402810184019094528084526060939283018282801561051257602002820191906000526020600020905b8154815260200190600101908083116104fe575b50505050509050919050565b6105266117ca565b6001600160a01b0382166000818152600560205260408082205490516370a0823160e01b81523060048201529092906370a0823190602401602060405180830381865afa15801561057b573d6000803e3d6000fd5b505050506040513d601f19601f8201168201806040525081019061059f9190611d59565b9050826105ac8383611d72565b10156105fa5760405162461bcd60e51b815260206004820152601d60248201527f43616e6e6f74207769746864726177206c6f636b656420746f6b656e7300000060448201526064016103c8565b836001600160a01b031663a9059cbb61061b6000546001600160a01b031690565b6040516001600160e01b031960e084901b1681526001600160a01b039091166004820152602481018690526044016020604051808303816000875af1158015610668573d6000803e3d6000fd5b505050506040513d601f19601f8201168201806040525081019061068c9190611d85565b5050505050565b61069b6117f7565b600082815260036020526040902060018101546001600160a01b031633146106d55760405162461bcd60e51b81526004016103c890611c09565b600581015460ff16156106fa5760405162461bcd60e51b81526004016103c890611c31565b6000821161073f5760405162461bcd60e51b81526020600482015260126024820152710416d6f756e74206d757374206265203e20360741b60448201526064016103c8565b80546040516323b872dd60e01b8152336004820152306024820152604481018490526001600160a01b03909116906323b872dd906064016020604051808303816000875af1158015610795573d6000803e3d6000fd5b505050506040513d601f19601f820116820180604052508101906107b99190611d85565b50818160020160008282546107ce9190611c72565b909155505080546001600160a01b0316600090815260056020526040812080548492906107fc908490611c72565b909155505080546002820154600483015460405133936001600160a01b03169287927f2009a104bc5faf5183965f152dc1bc19acef30255f62bf0d047b6fa8e1ca1b29926108509291906006890190611cbf565b60405180910390a45061086260018055565b5050565b6001600160a01b03811660009081526004602090815260408083208054825181850281018501909352808352606094938301828280156108c557602002820191906000526020600020905b8154815260200190600101908083116108b1575b505050505090506000805b825181101561093457600360008483815181106108ef576108ef611da7565b60209081029190910181015182528101919091526040016000206005015460ff16610922578161091e81611dbd565b9250505b8061092c81611dbd565b9150506108d0565b5060008167ffffffffffffffff81111561095057610950611dd6565b604051908082528060200260200182016040528015610979578160200160208202803683370190505b5090506000805b8451811015610a1b576003600086838151811061099f5761099f611da7565b60209081029190910181015182528101919091526040016000206005015460ff16610a09578481815181106109d6576109d6611da7565b60200260200101518383815181106109f0576109f0611da7565b602090810291909101015281610a0581611dbd565b9250505b80610a1381611dbd565b915050610980565b509095945050505050565b610a2e6117f7565b600081815260036020526040902060018101546001600160a01b03163314610a685760405162461bcd60e51b81526004016103c890611c09565b600581015460ff1615610a8d5760405162461bcd60e51b81526004016103c890611c31565b8060040154421015610ad05760405162461bcd60e51b815260206004820152600c60248201526b14dd1a5b1b081b1bd8dad95960a21b60448201526064016103c8565b6005808201805460ff19166001179055600282015482546001600160a01b0316600090815260209290925260408220805491929091610b10908490611d72565b90915550508054600282015460405163a9059cbb60e01b815233600482015260248101919091526001600160a01b039091169063a9059cbb906044016020604051808303816000875af1158015610b6b573d6000803e3d6000fd5b505050506040513d601f19601f82011682018060405250810190610b8f9190611d85565b508054600282015460405190815233916001600160a01b03169084907f6843d79adb50611907fd5b9e0d400dc65a6e7ad316b8a07e3fa7d202fbd7caa19060200160405180910390a450610be260018055565b50565b610bed6117ca565b610bf76000611821565b565b6000610c036117f7565b6001600160a01b038616610c495760405162461bcd60e51b815260206004820152600d60248201526c24b73b30b634b2103a37b5b2b760991b60448201526064016103c8565b60008511610c8e5760405162461bcd60e51b81526020600482015260126024820152710416d6f756e74206d757374206265203e20360741b60448201526064016103c8565b62278d00841015610cd65760405162461bcd60e51b8152602060048201526012602482015271111d5c985d1a5bdb881d1bdbc81cda1bdc9d60721b60448201526064016103c8565b6040516323b872dd60e01b8152336004820152306024820152604481018690526001600160a01b038716906323b872dd906064016020604051808303816000875af1158015610d29573d6000803e3d6000fd5b505050506040513d601f19601f82011682018060405250810190610d4d9190611d85565b506002805460009182610d5f83611dbd565b9091555090506000610d718642611c72565b90506040518060e00160405280896001600160a01b03168152602001336001600160a01b0316815260200188815260200142815260200182815260200160001515815260200186868080601f016020809104026020016040519081016040528093929190818152602001838380828437600092018290525093909452505084815260036020818152604092839020855181546001600160a01b03199081166001600160a01b03928316178355928701516001830180549094169116179091559184015160028301556060840151908201556080830151600482015560a083015160058201805460ff191691151591909117905560c08301519091506006820190610e7b9082611e3b565b50503360009081526004602090815260408083208054600181018255908452828420018690556001600160a01b038c1683526005909152812080548a9350909190610ec7908490611c72565b92505081905550336001600160a01b0316886001600160a01b0316837f2009a104bc5faf5183965f152dc1bc19acef30255f62bf0d047b6fa8e1ca1b298a858a8a604051610f189493929190611efb565b60405180910390a4509050610f2c60018055565b95945050505050565b60046020528160005260406000208181548110610f5157600080fd5b90600052602060002001600091509150505481565b610f6e6117f7565b600081815260036020526040902060018101546001600160a01b03163314610fa85760405162461bcd60e51b81526004016103c890611c09565b600581015460ff1615610fcd5760405162461bcd60e51b81526004016103c890611c31565b6005808201805460ff19166001179055600282015482546001600160a01b031660009081526020929092526040822080549192909161100d908490611d72565b9250508190555060006127106107d0836002015461102b9190611f38565b6110359190611f4f565b905060008183600201546110499190611d72565b835460405163a9059cbb60e01b8152336004820152602481018390529192506001600160a01b03169063a9059cbb906044016020604051808303816000875af115801561109a573d6000803e3d6000fd5b505050506040513d601f19601f820116820180604052508101906110be9190611d85565b50825460065460405163a9059cbb60e01b81526001600160a01b0391821660048201526024810185905291169063a9059cbb906044016020604051808303816000875af1158015611113573d6000803e3d6000fd5b505050506040513d601f19601f820116820180604052508101906111379190611d85565b506040805182815260208101849052339186917fb8c21df5c05617f1cc3867e4f5b74cd17455f25b76b83c37db8131ba0d64f7a7910160405180910390a3505050610be260018055565b6000818152600360208181526040808420815160e08101835281546001600160a01b039081168252600183015416938101939093526002810154918301919091529182015460608281019190915260048301546080830152600583015460ff16151560a083015260068301805485948594859485948594919385938493909260c084019161120e90611c85565b80601f016020809104026020016040519081016040528092919081815260200182805461123a90611c85565b80156112875780601f1061125c57610100808354040283529160200191611287565b820191906000526020600020905b81548152906001019060200180831161126a57829003601f168201915b5050505050815250509050600081608001514210156112b3574282608001516112b09190611d72565b90505b816000015182602001518360400151846060015185608001518660a001518760c0015187995099509950995099509950995099505050919395975091939597565b606060008267ffffffffffffffff81111561131157611311611dd6565b60405190808252806020026020018201604052801561139657816020015b6113836040518060e0016040528060006001600160a01b0316815260200160006001600160a01b03168152602001600081526020016000815260200160008152602001600015158152602001606081525090565b81526020019060019003908161132f5790505b50905060005b838110156114f057600360008686848181106113ba576113ba611da7565b60209081029290920135835250818101929092526040908101600020815160e08101835281546001600160a01b039081168252600183015416938101939093526002810154918301919091526003810154606083015260048101546080830152600581015460ff16151560a083015260068101805460c08401919061143e90611c85565b80601f016020809104026020016040519081016040528092919081815260200182805461146a90611c85565b80156114b75780601f1061148c576101008083540402835291602001916114b7565b820191906000526020600020905b81548152906001019060200180831161149a57829003601f168201915b5050505050815250508282815181106114d2576114d2611da7565b602002602001018190525080806114e890611dbd565b91505061139c565b5090505b92915050565b6000818152600360208181526040808420815160e08101835281546001600160a01b0390811682526001830154169381019390935260028101549183019190915291820154606082015260048201546080820152600582015460ff16151560a082015260068201805484939160c084019161157490611c85565b80601f01602080910402602001604051908101604052809291908181526020018280546115a090611c85565b80156115ed5780601f106115c2576101008083540402835291602001916115ed565b820191906000526020600020905b8154815290600101906020018083116115d057829003601f168201915b50505050508152505090508060a0015115801561160e575080608001514210155b9392505050565b61161d6117ca565b6001600160a01b0381166116655760405162461bcd60e51b815260206004820152600f60248201526e496e76616c6964206164647265737360881b60448201526064016103c8565b600680546001600160a01b038381166001600160a01b0319831681179093556040519116919082907f4a953288e328634750612c718ffc023ee8db3c4e7a251d683b07ccc4d89fd2f790600090a35050565b6116bf6117ca565b6001600160a01b0381166116e957604051631e4fbdf760e01b8152600060048201526024016103c8565b610be281611821565b600360208190526000918252604090912080546001820154600283015493830154600484015460058501546006860180546001600160a01b039687169896909516969394929360ff9092169261174790611c85565b80601f016020809104026020016040519081016040528092919081815260200182805461177390611c85565b80156117c05780601f10611795576101008083540402835291602001916117c0565b820191906000526020600020905b8154815290600101906020018083116117a357829003601f168201915b5050505050905087565b6000546001600160a01b03163314610bf75760405163118cdaa760e01b81523360048201526024016103c8565b60026001540361181a57604051633ee5aeb560e01b815260040160405180910390fd5b6002600155565b600080546001600160a01b038381166001600160a01b0319831681178455604051919092169283917f8be0079c531659141344cd1fd0a4f28419497f9722a3daafe3b4186f6b6457e09190a35050565b80356001600160a01b038116811461188857600080fd5b919050565b60006020828403121561189f57600080fd5b61160e82611871565b600080604083850312156118bb57600080fd5b50508035926020909101359150565b6020808252825182820181905260009190848201906040850190845b81811015611902578351835292840192918401916001016118e6565b50909695505050505050565b6000806040838503121561192157600080fd5b61192a83611871565b946020939093013593505050565b60006020828403121561194a57600080fd5b5035919050565b60008060008060006080868803121561196957600080fd5b61197286611871565b94506020860135935060408601359250606086013567ffffffffffffffff8082111561199d57600080fd5b818801915088601f8301126119b157600080fd5b8135818111156119c057600080fd5b8960208285010111156119d257600080fd5b9699959850939650602001949392505050565b6000815180845260005b81811015611a0b576020818501810151868301820152016119ef565b506000602082860101526020601f19601f83011685010191505092915050565b6001600160a01b0389811682528816602082015260408101879052606081018690526080810185905283151560a082015261010060c08201819052600090611a75838201866119e5565b9150508260e08301529998505050505050505050565b60008060208385031215611a9e57600080fd5b823567ffffffffffffffff80821115611ab657600080fd5b818501915085601f830112611aca57600080fd5b813581811115611ad957600080fd5b8660208260051b8501011115611aee57600080fd5b60209290920196919550909350505050565b60006020808301818452808551808352604092508286019150828160051b87010184880160005b83811015611ba957888303603f19018552815180516001600160a01b0390811685528882015116888501528681015187850152606080820151908501526080808201519085015260a08082015115159085015260c09081015160e091850182905290611b95818601836119e5565b968901969450505090860190600101611b27565b509098975050505050505050565b600060018060a01b03808a16835280891660208401525086604083015285606083015284608083015283151560a083015260e060c0830152611bfc60e08301846119e5565b9998505050505050505050565b6020808252600e908201526d2737ba103637b1b59037bbb732b960911b604082015260600190565b60208082526011908201527020b63932b0b23c903bb4ba34323930bbb760791b604082015260600190565b634e487b7160e01b600052601160045260246000fd5b808201808211156114f4576114f4611c5c565b600181811c90821680611c9957607f821691505b602082108103611cb957634e487b7160e01b600052602260045260246000fd5b50919050565b8381526000602084818401526060604084015260008454611cdf81611c85565b8060608701526080600180841660008114611d015760018114611d1b57611d49565b60ff1985168984015283151560051b890183019550611d49565b896000528660002060005b85811015611d415781548b8201860152908301908801611d26565b8a0184019650505b50939a9950505050505050505050565b600060208284031215611d6b57600080fd5b5051919050565b818103818111156114f4576114f4611c5c565b600060208284031215611d9757600080fd5b8151801515811461160e57600080fd5b634e487b7160e01b600052603260045260246000fd5b600060018201611dcf57611dcf611c5c565b5060010190565b634e487b7160e01b600052604160045260246000fd5b601f821115611e3657600081815260208120601f850160051c81016020861015611e135750805b601f850160051c820191505b81811015611e3257828155600101611e1f565b5050505b505050565b815167ffffffffffffffff811115611e5557611e55611dd6565b611e6981611e638454611c85565b84611dec565b602080601f831160018114611e9e5760008415611e865750858301515b600019600386901b1c1916600185901b178555611e32565b600085815260208120601f198616915b82811015611ecd57888601518255948401946001909101908401611eae565b5085821015611eeb5787850151600019600388901b60f8161c191681555b5050505050600190811b01905550565b84815283602082015260606040820152816060820152818360808301376000818301608090810191909152601f909201601f191601019392505050565b80820281158282048414176114f4576114f4611c5c565b600082611f6c57634e487b7160e01b600052601260045260246000fd5b50049056fea26469706673582212203201301b5008e966a672a33f1b040e5eee9cb1fc87f2f794f76aca935f8bc0b264736f6c63430008140033",
  "linkReferences": {},
  "deployedLinkReferences": {}
}