{
  "_format": "hh-sol-artifact-1",
  "contractName": "TokenFactory",
  "sourceName": "contracts/TokenFactory.sol",
  "abi": [
    {
      "inputs": [
        {
          "internalType": "address",
          "name": "_feeReceiver",
          "type": "address"
        },
        {
          "internalType": "uint256",
          "name": "_launchFee",
          "type": "uint256"
        }
      ],
      "stateMutability": "nonpayable",
      "type": "constructor"
    },
    {
      "inputs": [],
      "name": "EnforcedPause",
      "type": "error"
    },
    {
      "inputs": [],
      "name": "ExpectedPause",
      "type": "error"
    },
    {
      "inputs": [
        {
          "internalType": "address",
          "name": "owner",
          "type": "address"
        }
      ],
      "name": "OwnableInvalidOwner",
      "type": "error"
    },
    {
      "inputs": [
        {
          "internalType": "address",
          "name": "account",
          "type": "address"
        }
      ],
      "name": "OwnableUnauthorizedAccount",
      "type": "error"
    },
    {
      "inputs": [],
      "name": "ReentrancyGuardReentrantCall",
      "type": "error"
    },
    {
      "anonymous": false,
      "inputs": [
        {
          "indexed": true,
          "internalType": "address",
          "name": "oldReceiver",
          "type": "address"
        },
        {
          "indexed": true,
          "internalType": "address",
          "name": "newReceiver",
          "type": "address"
        }
      ],
      "name": "FeeReceiverUpdated",
      "type": "event"
    },
    {
      "anonymous": false,
      "inputs": [
        {
          "indexed": true,
          "internalType": "address",
          "name": "receiver",
          "type": "address"
        },
        {
          "indexed": false,
          "internalType": "uint256",
          "name": "amount",
          "type": "uint256"
        }
      ],
      "name": "FeeWithdrawn",
      "type": "event"
    },
    {
      "anonymous": false,
      "inputs": [
        {
          "indexed": false,
          "internalType": "uint256",
          "name": "oldFee",
          "type": "uint256"
        },
        {
          "indexed": false,
          "internalType": "uint256",
          "name": "newFee",
          "type": "uint256"
        }
      ],
      "name": "LaunchFeeUpdated",
      "type": "event"
    },
    {
      "anonymous": false,
      "inputs": [
        {
          "indexed": true,
          "internalType": "address",
          "name": "previousOwner",
          "type": "address"
        },
        {
          "indexed": true,
          "internalType": "address",
          "name": "newOwner",
          "type": "address"
        }
      ],
      "name": "OwnershipTransferred",
      "type": "event"
    },
    {
      "anonymous": false,
      "inputs": [
        {
          "indexed": false,
          "internalType": "address",
          "name": "account",
          "type": "address"
        }
      ],
      "name": "Paused",
      "type": "event"
    },
    {
      "anonymous": false,
      "inputs": [
        {
          "indexed": true,
          "internalType": "address",
          "name": "tokenAddress",
          "type": "address"
        },
        {
          "indexed": true,
          "internalType": "address",
          "name": "creator",
          "type": "address"
        },
        {
          "indexed": false,
          "internalType": "string",
          "name": "name",
          "type": "string"
        },
        {
          "indexed": false,
          "internalType": "string",
          "name": "symbol",
          "type": "string"
        },
        {
          "indexed": false,
          "internalType": "uint256",
          "name": "initialSupply",
          "type": "uint256"
        },
        {
          "indexed": false,
          "internalType": "uint256",
          "name": "timestamp",
          "type": "uint256"
        }
      ],
      "name": "TokenCreated",
      "type": "event"
    },
    {
      "anonymous": false,
      "inputs": [
        {
          "indexed": true,
          "internalType": "address",
          "name": "tokenAddress",
          "type": "address"
        },
        {
          "indexed": false,
          "internalType": "uint256",
          "name": "timestamp",
          "type": "uint256"
        }
      ],
      "name": "TokenDeactivated",
      "type": "event"
    },
    {
      "anonymous": false,
      "inputs": [
        {
          "indexed": false,
          "internalType": "address",
          "name": "account",
          "type": "address"
        }
      ],
      "name": "Unpaused",
      "type": "event"
    },
    {
      "inputs": [],
      "name": "MAX_SUPPLY",
      "outputs": [
        {
          "internalType": "uint256",
          "name": "",
          "type": "uint256"
        }
      ],
      "stateMutability": "view",
      "type": "function"
    },
    {
      "inputs": [],
      "name": "MIN_SUPPLY",
      "outputs": [
        {
          "internalType": "uint256",
          "name": "",
          "type": "uint256"
        }
      ],
      "stateMutability": "view",
      "type": "function"
    },
    {
      "inputs": [
        {
          "internalType": "uint256",
          "name": "",
          "type": "uint256"
        }
      ],
      "name": "allTokens",
      "outputs": [
        {
          "internalType": "address",
          "name": "",
          "type": "address"
        }
      ],
      "stateMutability": "view",
      "type": "function"
    },
    {
      "inputs": [
        {
          "internalType": "string",
          "name": "name",
          "type": "string"
        },
        {
          "internalType": "string",
          "name": "symbol",
          "type": "string"
        },
        {
          "internalType": "uint256",
          "name": "initialSupply",
          "type": "uint256"
        }
      ],
      "name": "createToken",
      "outputs": [
        {
          "internalType": "address",
          "name": "tokenAddress",
          "type": "address"
        }
      ],
      "stateMutability": "payable",
      "type": "function"
    },
    {
      "inputs": [
        {
          "internalType": "address",
          "name": "",
          "type": "address"
        },
        {
          "internalType": "uint256",
          "name": "",
          "type": "uint256"
        }
      ],
      "name": "creatorTokens",
      "outputs": [
        {
          "internalType": "address",
          "name": "",
          "type": "address"
        }
      ],
      "stateMutability": "view",
      "type": "function"
    },
    {
      "inputs": [
        {
          "internalType": "address",
          "name": "tokenAddress",
          "type": "address"
        }
      ],
      "name": "deactivateToken",
      "outputs": [],
      "stateMutability": "nonpayable",
      "type": "function"
    },
    {
      "inputs": [],
      "name": "feeReceiver",
      "outputs": [
        {
          "internalType": "address",
          "name": "",
          "type": "address"
        }
      ],
      "stateMutability": "view",
      "type": "function"
    },
    {
      "inputs": [
        {
          "internalType": "address",
          "name": "creator",
          "type": "address"
        }
      ],
      "name": "getCreatorTokens",
      "outputs": [
        {
          "internalType": "address[]",
          "name": "",
          "type": "address[]"
        }
      ],
      "stateMutability": "view",
      "type": "function"
    },
    {
      "inputs": [
        {
          "internalType": "uint256",
          "name": "count",
          "type": "uint256"
        }
      ],
      "name": "getRecentTokens",
      "outputs": [
        {
          "internalType": "address[]",
          "name": "",
          "type": "address[]"
        }
      ],
      "stateMutability": "view",
      "type": "function"
    },
    {
      "inputs": [
        {
          "internalType": "address",
          "name": "tokenAddress",
          "type": "address"
        }
      ],
      "name": "getTokenInfo",
      "outputs": [
        {
          "components": [
            {
              "internalType": "address",
              "name": "tokenAddress",
              "type": "address"
            },
            {
              "internalType": "address",
              "name": "creator",
              "type": "address"
            },
            {
              "internalType": "string",
              "name": "name",
              "type": "string"
            },
            {
              "internalType": "string",
              "name": "symbol",
              "type": "string"
            },
            {
              "internalType": "uint256",
              "name": "initialSupply",
              "type": "uint256"
            },
            {
              "internalType": "uint256",
              "name": "createdAt",
              "type": "uint256"
            },
            {
              "internalType": "bool",
              "name": "isActive",
              "type": "bool"
            }
          ],
          "internalType": "struct TokenFactory.TokenInfo",
          "name": "",
          "type": "tuple"
        }
      ],
      "stateMutability": "view",
      "type": "function"
    },
    {
      "inputs": [
        {
          "internalType": "address",
          "name": "tokenAddress",
          "type": "address"
        }
      ],
      "name": "isValidToken",
      "outputs": [
        {
          "internalType": "bool",
          "name": "",
          "type": "bool"
        }
      ],
      "stateMutability": "view",
      "type": "function"
    },
    {
      "inputs": [],
      "name": "launchFee",
      "outputs": [
        {
          "internalType": "uint256",
          "name": "",
          "type": "uint256"
        }
      ],
      "stateMutability": "view",
      "type": "function"
    },
    {
      "inputs": [],
      "name": "owner",
      "outputs": [
        {
          "internalType": "address",
          "name": "",
          "type": "address"
        }
      ],
      "stateMutability": "view",
      "type": "function"
    },
    {
      "inputs": [],
      "name": "pause",
      "outputs": [],
      "stateMutability": "nonpayable",
      "type": "function"
    },
    {
      "inputs": [],
      "name": "paused",
      "outputs": [
        {
          "internalType": "bool",
          "name": "",
          "type": "bool"
        }
      ],
      "stateMutability": "view",
      "type": "function"
    },
    {
      "inputs": [],
      "name": "renounceOwnership",
      "outputs": [],
      "stateMutability": "nonpayable",
      "type": "function"
    },
    {
      "inputs": [
        {
          "internalType": "address",
          "name": "newReceiver",
          "type": "address"
        }
      ],
      "name": "setFeeReceiver",
      "outputs": [],
      "stateMutability": "nonpayable",
      "type": "function"
    },
    {
      "inputs": [
        {
          "internalType": "uint256",
          "name": "newFee",
          "type": "uint256"
        }
      ],
      "name": "setLaunchFee",
      "outputs": [],
      "stateMutability": "nonpayable",
      "type": "function"
    },
    {
      "inputs": [
        {
          "internalType": "address",
          "name": "",
          "type": "address"
        }
      ],
      "name": "tokenInfo",
      "outputs": [
        {
          "internalType": "address",
          "name": "tokenAddress",
          "type": "address"
        },
        {
          "internalType": "address",
          "name": "creator",
          "type": "address"
        },
        {
          "internalType": "string",
          "name": "name",
          "type": "string"
        },
        {
          "internalType": "string",
          "name": "symbol",
          "type": "string"
        },
        {
          "internalType": "uint256",
          "name": "initialSupply",
          "type": "uint256"
        },
        {
          "internalType": "uint256",
          "name": "createdAt",
          "type": "uint256"
        },
        {
          "internalType": "bool",
          "name": "isActive",
          "type": "bool"
        }
      ],
      "stateMutability": "view",
      "type": "function"
    },
    {
      "inputs": [],
      "name": "totalTokensCreated",
      "outputs": [
        {
          "internalType": "uint256",
          "name": "",
          "type": "uint256"
        }
      ],
      "stateMutability": "view",
      "type": "function"
    },
    {
      "inputs": [
        {
          "internalType": "address",
          "name": "newOwner",
          "type": "address"
        }
      ],
      "name": "transferOwnership",
      "outputs": [],
      "stateMutability": "nonpayable",
      "type": "function"
    },
    {
      "inputs": [],
      "name": "unpause",
      "outputs": [],
      "stateMutability": "nonpayable",
      "type": "function"
    },
    {
      "inputs": [],
      "name": "withdrawFees",
      "outputs": [],
      "stateMutability": "nonpayable",
      "type": "function"
    },
    {
      "stateMutability": "payable",
      "type": "receive"
    }
  ],
  "bytecode": "0x60806040523480156200001157600080fd5b50604051620027303803806200273083398101604081905262000034916200013e565b33806200005c57604051631e4fbdf760e01b8152600060048201526024015b60405180910390fd5b6200006781620000ee565b50600180556001600160a01b038216620000c45760405162461bcd60e51b815260206004820152601460248201527f496e76616c696420666565207265636569766572000000000000000000000000604482015260640162000053565b600480546001600160a01b0319166001600160a01b0393909316929092179091556003556200017a565b600080546001600160a01b038381166001600160a01b0319831681178455604051919092169283917f8be0079c531659141344cd1fd0a4f28419497f9722a3daafe3b4186f6b6457e09190a35050565b600080604083850312156200015257600080fd5b82516001600160a01b03811681146200016a57600080fd5b6020939093015192949293505050565b6125a6806200018a6000396000f3fe6080604052600436106200015f5760003560e01c806374abfa5411620000c5578063c18764531162000078578063c187645314620003d3578063cf3cf5731462000413578063db3fa4cc146200042b578063efdcd9741462000450578063f2fde38b1462000475578063f5dab711146200049a57600080fd5b806374abfa54146200030857806378f3f38a146200033c5780638456cb5914620003615780638da5cb5b1462000379578063abb2b6821462000399578063b3f0067414620003b157600080fd5b80635313be2c116200011e5780635313be2c146200022b5780635b06053014620002505780635c975abb1462000280578063634282af14620002a657806368173bcf14620002cb578063715018a614620002f057600080fd5b80631f69565f146200016c57806332cb6b0c14620001a957806335917c6414620001da5780633f4ba83a14620001f9578063476343ee146200021357600080fd5b366200016757005b600080fd5b3480156200017957600080fd5b50620001916200018b366004620013a0565b620004d4565b604051620001a0919062001406565b60405180910390f35b348015620001b657600080fd5b50620001cb6b033b2e3c9fd0803ce800000081565b604051908152602001620001a0565b348015620001e757600080fd5b50620001cb683635c9adc5dea0000081565b3480156200020657600080fd5b5062000211620006c5565b005b3480156200022057600080fd5b5062000211620006db565b3480156200023857600080fd5b50620002116200024a36600462001491565b62000810565b620002676200026136600462001556565b6200085f565b6040516001600160a01b039091168152602001620001a0565b3480156200028d57600080fd5b5060025460ff165b6040519015158152602001620001a0565b348015620002b357600080fd5b5062000267620002c536600462001491565b62000cc4565b348015620002d857600080fd5b5062000211620002ea366004620013a0565b62000cef565b348015620002fd57600080fd5b506200021162000dba565b3480156200031557600080fd5b506200032d62000327366004620013a0565b62000dd0565b604051620001a09190620015ca565b3480156200034957600080fd5b506200032d6200035b36600462001491565b62000e48565b3480156200036e57600080fd5b506200021162000f49565b3480156200038657600080fd5b506000546001600160a01b031662000267565b348015620003a657600080fd5b50620001cb60055481565b348015620003be57600080fd5b5060045462000267906001600160a01b031681565b348015620003e057600080fd5b5062000295620003f2366004620013a0565b6001600160a01b031660009081526008602052604090206006015460ff1690565b3480156200042057600080fd5b50620001cb60035481565b3480156200043857600080fd5b50620002676200044a36600462001619565b62000f5d565b3480156200045d57600080fd5b50620002116200046f366004620013a0565b62000f96565b3480156200048257600080fd5b506200021162000494366004620013a0565b6200103d565b348015620004a757600080fd5b50620004bf620004b9366004620013a0565b62001081565b604051620001a0979695949392919062001646565b620005296040518060e0016040528060006001600160a01b0316815260200160006001600160a01b03168152602001606081526020016060815260200160008152602001600081526020016000151581525090565b6001600160a01b03808316600090815260086020908152604091829020825160e08101845281548516815260018201549094169184019190915260028101805491928401916200057990620016aa565b80601f0160208091040260200160405190810160405280929190818152602001828054620005a790620016aa565b8015620005f85780601f10620005cc57610100808354040283529160200191620005f8565b820191906000526020600020905b815481529060010190602001808311620005da57829003601f168201915b505050505081526020016003820180546200061390620016aa565b80601f01602080910402602001604051908101604052809291908181526020018280546200064190620016aa565b8015620006925780601f10620006665761010080835404028352916020019162000692565b820191906000526020600020905b8154815290600101906020018083116200067457829003601f168201915b5050509183525050600482015460208201526005820154604082015260069091015460ff16151560609091015292915050565b620006cf620011ee565b620006d96200121d565b565b620006e5620011ee565b47806200072f5760405162461bcd60e51b81526020600482015260136024820152724e6f206665657320746f20776974686472617760681b60448201526064015b60405180910390fd5b6004546040516000916001600160a01b03169083908381818185875af1925050503d80600081146200077e576040519150601f19603f3d011682016040523d82523d6000602084013e62000783565b606091505b5050905080620007ca5760405162461bcd60e51b815260206004820152601160248201527015da5d1a191c985dd85b0819985a5b1959607a1b604482015260640162000726565b6004546040518381526001600160a01b03909116907f78473f3f373f7673597f4f0fa5873cb4d375fea6d4339ad6b56dbd411513cb3f9060200160405180910390a25050565b6200081a620011ee565b600380549082905560408051828152602081018490527f0fd958ac60db1437ae35514054402c4e597e81881e4b6dd47a6509bd89121428910160405180910390a15050565b60006200086b62001271565b620008756200129c565b600084511180156200088957506032845111155b620008cd5760405162461bcd60e51b8152602060048201526013602482015272092dcecc2d8d2c840dcc2daca40d8cadccee8d606b1b604482015260640162000726565b60008351118015620008e15750600a835111155b620009275760405162461bcd60e51b8152602060048201526015602482015274092dcecc2d8d2c840e6f2dac4ded840d8cadccee8d605b1b604482015260640162000726565b683635c9adc5dea00000821015620009735760405162461bcd60e51b815260206004820152600e60248201526d537570706c7920746f6f206c6f7760901b604482015260640162000726565b6b033b2e3c9fd0803ce8000000821115620009c35760405162461bcd60e51b815260206004820152600f60248201526e0a6eae0e0d8f240e8dede40d0d2ced608b1b604482015260640162000726565b60035434101562000a0a5760405162461bcd60e51b815260206004820152601060248201526f496e73756666696369656e742066656560801b604482015260640162000726565b60008484843360405162000a1e9062001375565b62000a2d9493929190620016e6565b604051809103906000f08015801562000a4a573d6000803e3d6000fd5b506040805160e0810182526001600160a01b038084168083523360208085019182528486018c8152606086018c9052608086018b90524260a0870152600160c087018190526000948552600890925295909220845181549085166001600160a01b031991821617825591519281018054939094169290911691909117909155915192945084935091600282019062000ae3908262001784565b506060820151600382019062000afa908262001784565b506080820151600482015560a082015160058083019190915560c0909201516006918201805460ff191691151591909117905533600090815260209182526040812080546001818101835591835292822090920180546001600160a01b03199081166001600160a01b03881690811790925560078054948501815583527fa66cc928b5edb82af9bd49922954155ab7b0942694bea4ce44661d9a8736c6889093018054909316179091558154919062000bb38362001867565b9190505550336001600160a01b0316826001600160a01b03167fc12630d761ddbf18b9530f31d91e67493535a2b635711bcff59fded8bf381cce8787874260405162000c03949392919062001883565b60405180910390a360035434111562000cb257600354600090339062000c2a9034620018c0565b604051600081818185875af1925050503d806000811462000c68576040519150601f19603f3d011682016040523d82523d6000602084013e62000c6d565b606091505b505090508062000cb05760405162461bcd60e51b815260206004820152600d60248201526c1499599d5b990819985a5b1959609a1b604482015260640162000726565b505b5062000cbd60018055565b9392505050565b6007818154811062000cd557600080fd5b6000918252602090912001546001600160a01b0316905081565b62000cf9620011ee565b6001600160a01b03811660009081526008602052604090206006015460ff1662000d595760405162461bcd60e51b815260206004820152601060248201526f546f6b656e206e6f742061637469766560801b604482015260640162000726565b6001600160a01b03811660008181526008602052604090819020600601805460ff19169055517f4e8cb9d338f8f3f74070570a38c7e0baf6918c6ab3b7134929669af8b352dcca9062000daf9042815260200190565b60405180910390a250565b62000dc4620011ee565b620006d96000620012c1565b6001600160a01b03811660009081526006602090815260409182902080548351818402810184019094528084526060939283018282801562000e3c57602002820191906000526020600020905b81546001600160a01b0316815260019091019060200180831162000e1d575b50505050509050919050565b6007546060908083111562000e5b578092505b60008367ffffffffffffffff81111562000e795762000e79620014ab565b60405190808252806020026020018201604052801562000ea3578160200160208202803683370190505b50905060005b8481101562000f415760078162000ec2600186620018c0565b62000ece9190620018c0565b8154811062000ee15762000ee1620018dc565b9060005260206000200160009054906101000a90046001600160a01b031682828151811062000f145762000f14620018dc565b6001600160a01b03909216602092830291909101909101528062000f388162001867565b91505062000ea9565b509392505050565b62000f53620011ee565b620006d962001311565b6006602052816000526040600020818154811062000f7a57600080fd5b6000918252602090912001546001600160a01b03169150829050565b62000fa0620011ee565b6001600160a01b03811662000feb5760405162461bcd60e51b815260206004820152601060248201526f24b73b30b634b2103932b1b2b4bb32b960811b604482015260640162000726565b600480546001600160a01b038381166001600160a01b0319831681179093556040519116919082907fa92ff4390fe6943f0b30e8fe715dde86f85ab79b2b2c640a10fc094cc4036cc890600090a35050565b62001047620011ee565b6001600160a01b0381166200107357604051631e4fbdf760e01b81526000600482015260240162000726565b6200107e81620012c1565b50565b6008602052600090815260409020805460018201546002830180546001600160a01b03938416949290931692620010b890620016aa565b80601f0160208091040260200160405190810160405280929190818152602001828054620010e690620016aa565b8015620011375780601f106200110b5761010080835404028352916020019162001137565b820191906000526020600020905b8154815290600101906020018083116200111957829003601f168201915b5050505050908060030180546200114e90620016aa565b80601f01602080910402602001604051908101604052809291908181526020018280546200117c90620016aa565b8015620011cd5780601f10620011a157610100808354040283529160200191620011cd565b820191906000526020600020905b815481529060010190602001808311620011af57829003601f168201915b50505050600483015460058401546006909401549293909290915060ff1687565b6000546001600160a01b03163314620006d95760405163118cdaa760e01b815233600482015260240162000726565b6200122762001351565b6002805460ff191690557f5db9ee0a495bf2e6ff9c91a7834c1ba4fdd244a5e8aa4e537bd38aeae4b073aa335b6040516001600160a01b03909116815260200160405180910390a1565b6002600154036200129557604051633ee5aeb560e01b815260040160405180910390fd5b6002600155565b60025460ff1615620006d95760405163d93c066560e01b815260040160405180910390fd5b600080546001600160a01b038381166001600160a01b0319831681178455604051919092169283917f8be0079c531659141344cd1fd0a4f28419497f9722a3daafe3b4186f6b6457e09190a35050565b6200131b6200129c565b6002805460ff191660011790557f62e78cea01bee320cd4e420270b5ea74000d11b0c9f74754ebdbfc544b05a258620012543390565b60025460ff16620006d957604051638dfc202b60e01b815260040160405180910390fd5b610c7e80620018f383390190565b80356001600160a01b03811681146200139b57600080fd5b919050565b600060208284031215620013b357600080fd5b62000cbd8262001383565b6000815180845260005b81811015620013e657602081850181015186830182015201620013c8565b506000602082860101526020601f19601f83011685010191505092915050565b60208152600060018060a01b0380845116602084015280602085015116604084015250604083015160e0606084015262001445610100840182620013be565b90506060840151601f19848303016080850152620014648282620013be565b915050608084015160a084015260a084015160c084015260c0840151151560e08401528091505092915050565b600060208284031215620014a457600080fd5b5035919050565b634e487b7160e01b600052604160045260246000fd5b600082601f830112620014d357600080fd5b813567ffffffffffffffff80821115620014f157620014f1620014ab565b604051601f8301601f19908116603f011681019082821181831017156200151c576200151c620014ab565b816040528381528660208588010111156200153657600080fd5b836020870160208301376000602085830101528094505050505092915050565b6000806000606084860312156200156c57600080fd5b833567ffffffffffffffff808211156200158557600080fd5b6200159387838801620014c1565b94506020860135915080821115620015aa57600080fd5b50620015b986828701620014c1565b925050604084013590509250925092565b6020808252825182820181905260009190848201906040850190845b818110156200160d5783516001600160a01b031683529284019291840191600101620015e6565b50909695505050505050565b600080604083850312156200162d57600080fd5b620016388362001383565b946020939093013593505050565b6001600160a01b0388811682528716602082015260e0604082018190526000906200167490830188620013be565b8281036060840152620016888188620013be565b6080840196909652505060a0810192909252151560c090910152949350505050565b600181811c90821680620016bf57607f821691505b602082108103620016e057634e487b7160e01b600052602260045260246000fd5b50919050565b608081526000620016fb6080830187620013be565b82810360208401526200170f8187620013be565b604084019590955250506001600160a01b039190911660609091015292915050565b601f8211156200177f57600081815260208120601f850160051c810160208610156200175a5750805b601f850160051c820191505b818110156200177b5782815560010162001766565b5050505b505050565b815167ffffffffffffffff811115620017a157620017a1620014ab565b620017b981620017b28454620016aa565b8462001731565b602080601f831160018114620017f15760008415620017d85750858301515b600019600386901b1c1916600185901b1785556200177b565b600085815260208120601f198616915b82811015620018225788860151825594840194600190910190840162001801565b5085821015620018415787850151600019600388901b60f8161c191681555b5050505050600190811b01905550565b634e487b7160e01b600052601160045260246000fd5b6000600182016200187c576200187c62001851565b5060010190565b608081526000620018986080830187620013be565b8281036020840152620018ac8187620013be565b604084019590955250506060015292915050565b81810381811115620018d657620018d662001851565b92915050565b634e487b7160e01b600052603260045260246000fdfe60a06040523480156200001157600080fd5b5060405162000c7e38038062000c7e8339810160408190526200003491620002c5565b83836003620000448382620003e9565b506004620000538282620003e9565b5050600580546001600160a01b0319166001600160a01b03841617905550426080526200008181836200008b565b50505050620004dd565b6001600160a01b038216620000bb5760405163ec442f0560e01b8152600060048201526024015b60405180910390fd5b620000c960008383620000cd565b5050565b6001600160a01b038316620000fc578060026000828254620000f09190620004b5565b90915550620001709050565b6001600160a01b03831660009081526020819052604090205481811015620001515760405163391434e360e21b81526001600160a01b03851660048201526024810182905260448101839052606401620000b2565b6001600160a01b03841660009081526020819052604090209082900390555b6001600160a01b0382166200018e57600280548290039055620001ad565b6001600160a01b03821660009081526020819052604090208054820190555b816001600160a01b0316836001600160a01b03167fddf252ad1be2c89b69c2b068fc378daa952ba7f163c4a11628f55a4df523b3ef83604051620001f391815260200190565b60405180910390a3505050565b634e487b7160e01b600052604160045260246000fd5b600082601f8301126200022857600080fd5b81516001600160401b038082111562000245576200024562000200565b604051601f8301601f19908116603f0116810190828211818310171562000270576200027062000200565b816040528381526020925086838588010111156200028d57600080fd5b600091505b83821015620002b1578582018301518183018401529082019062000292565b600093810190920192909252949350505050565b60008060008060808587031215620002dc57600080fd5b84516001600160401b0380821115620002f457600080fd5b620003028883890162000216565b955060208701519150808211156200031957600080fd5b50620003288782880162000216565b60408701516060880151919550935090506001600160a01b03811681146200034f57600080fd5b939692955090935050565b600181811c908216806200036f57607f821691505b6020821081036200039057634e487b7160e01b600052602260045260246000fd5b50919050565b601f821115620003e457600081815260208120601f850160051c81016020861015620003bf5750805b601f850160051c820191505b81811015620003e057828155600101620003cb565b5050505b505050565b81516001600160401b0381111562000405576200040562000200565b6200041d816200041684546200035a565b8462000396565b602080601f8311600181146200045557600084156200043c5750858301515b600019600386901b1c1916600185901b178555620003e0565b600085815260208120601f198616915b82811015620004865788860151825594840194600190910190840162000465565b5085821015620004a55787850151600019600388901b60f8161c191681555b5050505050600190811b01905550565b80820180821115620004d757634e487b7160e01b600052601160045260246000fd5b92915050565b608051610785620004f9600039600061019301526107856000f3fe608060405234801561001057600080fd5b50600436106100a95760003560e01c8063313ce56711610071578063313ce5671461013b57806370a082311461014a57806395d89b4114610173578063a9059cbb1461017b578063cf09e0d01461018e578063dd62ed3e146101b557600080fd5b806302d05d3f146100ae57806306fdde03146100de578063095ea7b3146100f357806318160ddd1461011657806323b872dd14610128575b600080fd5b6005546100c1906001600160a01b031681565b6040516001600160a01b0390911681526020015b60405180910390f35b6100e66101ee565b6040516100d591906105cf565b610106610101366004610639565b610280565b60405190151581526020016100d5565b6002545b6040519081526020016100d5565b610106610136366004610663565b61029a565b604051601281526020016100d5565b61011a61015836600461069f565b6001600160a01b031660009081526020819052604090205490565b6100e66102be565b610106610189366004610639565b6102cd565b61011a7f000000000000000000000000000000000000000000000000000000000000000081565b61011a6101c33660046106c1565b6001600160a01b03918216600090815260016020908152604080832093909416825291909152205490565b6060600380546101fd906106f4565b80601f0160208091040260200160405190810160405280929190818152602001828054610229906106f4565b80156102765780601f1061024b57610100808354040283529160200191610276565b820191906000526020600020905b81548152906001019060200180831161025957829003601f168201915b5050505050905090565b60003361028e8185856102db565b60019150505b92915050565b6000336102a88582856102ed565b6102b3858585610371565b506001949350505050565b6060600480546101fd906106f4565b60003361028e818585610371565b6102e883838360016103d0565b505050565b6001600160a01b0383811660009081526001602090815260408083209386168352929052205460001981101561036b578181101561035c57604051637dc7a0d960e11b81526001600160a01b038416600482015260248101829052604481018390526064015b60405180910390fd5b61036b848484840360006103d0565b50505050565b6001600160a01b03831661039b57604051634b637e8f60e11b815260006004820152602401610353565b6001600160a01b0382166103c55760405163ec442f0560e01b815260006004820152602401610353565b6102e88383836104a5565b6001600160a01b0384166103fa5760405163e602df0560e01b815260006004820152602401610353565b6001600160a01b03831661042457604051634a1406b160e11b815260006004820152602401610353565b6001600160a01b038085166000908152600160209081526040808320938716835292905220829055801561036b57826001600160a01b0316846001600160a01b03167f8c5be1e5ebec7d5bd14f71427d1e84f3dd0314c0f7b2291e5b200ac8c7c3b9258460405161049791815260200190565b60405180910390a350505050565b6001600160a01b0383166104d05780600260008282546104c5919061072e565b909155506105429050565b6001600160a01b038316600090815260208190526040902054818110156105235760405163391434e360e21b81526001600160a01b03851660048201526024810182905260448101839052606401610353565b6001600160a01b03841660009081526020819052604090209082900390555b6001600160a01b03821661055e5760028054829003905561057d565b6001600160a01b03821660009081526020819052604090208054820190555b816001600160a01b0316836001600160a01b03167fddf252ad1be2c89b69c2b068fc378daa952ba7f163c4a11628f55a4df523b3ef836040516105c291815260200190565b60405180910390a3505050565b600060208083528351808285015260005b818110156105fc578581018301518582016040015282016105e0565b506000604082860101526040601f19601f8301168501019250505092915050565b80356001600160a01b038116811461063457600080fd5b919050565b6000806040838503121561064c57600080fd5b6106558361061d565b946020939093013593505050565b60008060006060848603121561067857600080fd5b6106818461061d565b925061068f6020850161061d565b9150604084013590509250925092565b6000602082840312156106b157600080fd5b6106ba8261061d565b9392505050565b600080604083850312156106d457600080fd5b6106dd8361061d565b91506106eb6020840161061d565b90509250929050565b600181811c9082168061070857607f821691505b60208210810361072857634e487b7160e01b600052602260045260246000fd5b50919050565b8082018082111561029457634e487b7160e01b600052601160045260246000fdfea264697066735822122030acc159bde345054d3a58786ff1f9dd37bf0ba61ae8afb8f59ac10531799b5b64736f6c63430008140033a26469706673582212208a3df6338315174b38c619883fa98818b3f815d0ae245b72e12ae19e6dcdbb2164736f6c63430008140033",
  "linkReferences": {},
  "deployedLinkReferences": {}
}