{
  "_format": "hh-sol-artifact-1",
  "contractName": "YieldDistributor",
  "sourceName": "contracts/YieldDistributor.sol",
  "abi": [
    {
      "inputs": [],
      "stateMutability": "nonpayable",
      "type": "constructor"
    },
    {
      "inputs": [
        {
          "internalType": "address",
          "name": "owner",
          "type": "address"
        }
      ],
      "name": "OwnableInvalidOwner",
      "type": "error"
    },
    {
      "inputs": [
        {
          "internalType": "address",
          "name": "account",
          "type": "address"
        }
      ],
      "name": "OwnableUnauthorizedAccount",
      "type": "error"
    },
    {
      "inputs": [],
      "name": "ReentrancyGuardReentrantCall",
      "type": "error"
    },
    {
      "anonymous": false,
      "inputs": [
        {
          "indexed": true,
          "internalType": "address",
          "name": "previousOwner",
          "type": "address"
        },
        {
          "indexed": true,
          "internalType": "address",
          "name": "newOwner",
          "type": "address"
        }
      ],
      "name": "OwnershipTransferred",
      "type": "event"
    },
    {
      "anonymous": false,
      "inputs": [
        {
          "indexed": true,
          "internalType": "address",
          "name": "token",
          "type": "address"
        },
        {
          "indexed": false,
          "internalType": "uint256",
          "name": "timestamp",
          "type": "uint256"
        }
      ],
      "name": "PoolCreated",
      "type": "event"
    },
    {
      "anonymous": false,
      "inputs": [
        {
          "indexed": true,
          "internalType": "address",
          "name": "token",
          "type": "address"
        },
        {
          "indexed": true,
          "internalType": "address",
          "name": "user",
          "type": "address"
        },
        {
          "indexed": false,
          "internalType": "uint256",
          "name": "amount",
          "type": "uint256"
        },
        {
          "indexed": false,
          "internalType": "uint256",
          "name": "timestamp",
          "type": "uint256"
        }
      ],
      "name": "YieldClaimed",
      "type": "event"
    },
    {
      "anonymous": false,
      "inputs": [
        {
          "indexed": true,
          "internalType": "address",
          "name": "token",
          "type": "address"
        },
        {
          "indexed": false,
          "internalType": "uint256",
          "name": "amount",
          "type": "uint256"
        },
        {
          "indexed": false,
          "internalType": "uint256",
          "name": "timestamp",
          "type": "uint256"
        }
      ],
      "name": "YieldDeposited",
      "type": "event"
    },
    {
      "anonymous": false,
      "inputs": [
        {
          "indexed": true,
          "internalType": "address",
          "name": "token",
          "type": "address"
        },
        {
          "indexed": false,
          "internalType": "uint256",
          "name": "amount",
          "type": "uint256"
        },
        {
          "indexed": false,
          "internalType": "uint256",
          "name": "holdersCount",
          "type": "uint256"
        },
        {
          "indexed": false,
          "internalType": "uint256",
          "name": "timestamp",
          "type": "uint256"
        }
      ],
      "name": "YieldDistributed",
      "type": "event"
    },
    {
      "inputs": [],
      "name": "MAX_HOLDERS_PER_DISTRIBUTION",
      "outputs": [
        {
          "internalType": "uint256",
          "name": "",
          "type": "uint256"
        }
      ],
      "stateMutability": "view",
      "type": "function"
    },
    {
      "inputs": [],
      "name": "MIN_CLAIM_AMOUNT",
      "outputs": [
        {
          "internalType": "uint256",
          "name": "",
          "type": "uint256"
        }
      ],
      "stateMutability": "view",
      "type": "function"
    },
    {
      "inputs": [],
      "name": "MIN_DISTRIBUTION_AMOUNT",
      "outputs": [
        {
          "internalType": "uint256",
          "name": "",
          "type": "uint256"
        }
      ],
      "stateMutability": "view",
      "type": "function"
    },
    {
      "inputs": [
        {
          "internalType": "address",
          "name": "token",
          "type": "address"
        },
        {
          "internalType": "address",
          "name": "user",
          "type": "address"
        }
      ],
      "name": "canClaim",
      "outputs": [
        {
          "internalType": "bool",
          "name": "",
          "type": "bool"
        }
      ],
      "stateMutability": "view",
      "type": "function"
    },
    {
      "inputs": [
        {
          "internalType": "address[]",
          "name": "tokens",
          "type": "address[]"
        }
      ],
      "name": "claimMultiple",
      "outputs": [],
      "stateMutability": "nonpayable",
      "type": "function"
    },
    {
      "inputs": [
        {
          "internalType": "address",
          "name": "token",
          "type": "address"
        }
      ],
      "name": "claimYield",
      "outputs": [],
      "stateMutability": "nonpayable",
      "type": "function"
    },
    {
      "inputs": [
        {
          "internalType": "address",
          "name": "token",
          "type": "address"
        }
      ],
      "name": "createPool",
      "outputs": [],
      "stateMutability": "nonpayable",
      "type": "function"
    },
    {
      "inputs": [
        {
          "internalType": "address",
          "name": "token",
          "type": "address"
        }
      ],
      "name": "deactivatePool",
      "outputs": [],
      "stateMutability": "nonpayable",
      "type": "function"
    },
    {
      "inputs": [
        {
          "internalType": "address",
          "name": "token",
          "type": "address"
        }
      ],
      "name": "depositYield",
      "outputs": [],
      "stateMutability": "payable",
      "type": "function"
    },
    {
      "inputs": [
        {
          "internalType": "address",
          "name": "token",
          "type": "address"
        },
        {
          "internalType": "address",
          "name": "holder",
          "type": "address"
        },
        {
          "internalType": "uint256",
          "name": "amount",
          "type": "uint256"
        }
      ],
      "name": "distributeSingle",
      "outputs": [],
      "stateMutability": "nonpayable",
      "type": "function"
    },
    {
      "inputs": [
        {
          "internalType": "address",
          "name": "token",
          "type": "address"
        },
        {
          "internalType": "address[]",
          "name": "holders",
          "type": "address[]"
        },
        {
          "internalType": "uint256[]",
          "name": "balances",
          "type": "uint256[]"
        }
      ],
      "name": "distributeYield",
      "outputs": [],
      "stateMutability": "nonpayable",
      "type": "function"
    },
    {
      "inputs": [
        {
          "internalType": "address",
          "name": "token",
          "type": "address"
        }
      ],
      "name": "emergencyWithdraw",
      "outputs": [],
      "stateMutability": "nonpayable",
      "type": "function"
    },
    {
      "inputs": [
        {
          "internalType": "address",
          "name": "token",
          "type": "address"
        },
        {
          "internalType": "address",
          "name": "user",
          "type": "address"
        }
      ],
      "name": "getPendingYield",
      "outputs": [
        {
          "internalType": "uint256",
          "name": "",
          "type": "uint256"
        }
      ],
      "stateMutability": "view",
      "type": "function"
    },
    {
      "inputs": [
        {
          "internalType": "address[]",
          "name": "tokens",
          "type": "address[]"
        },
        {
          "internalType": "address",
          "name": "user",
          "type": "address"
        }
      ],
      "name": "getPendingYieldMultiple",
      "outputs": [
        {
          "internalType": "uint256[]",
          "name": "",
          "type": "uint256[]"
        }
      ],
      "stateMutability": "view",
      "type": "function"
    },
    {
      "inputs": [
        {
          "internalType": "address",
          "name": "token",
          "type": "address"
        }
      ],
      "name": "getPoolInfo",
      "outputs": [
        {
          "internalType": "uint256",
          "name": "totalYield",
          "type": "uint256"
        },
        {
          "internalType": "uint256",
          "name": "distributedYield",
          "type": "uint256"
        },
        {
          "internalType": "uint256",
          "name": "availableYield",
          "type": "uint256"
        },
        {
          "internalType": "uint256",
          "name": "lastDistribution",
          "type": "uint256"
        },
        {
          "internalType": "bool",
          "name": "isActive",
          "type": "bool"
        }
      ],
      "stateMutability": "view",
      "type": "function"
    },
    {
      "inputs": [
        {
          "internalType": "address",
          "name": "token",
          "type": "address"
        },
        {
          "internalType": "address",
          "name": "user",
          "type": "address"
        }
      ],
      "name": "getUserYieldInfo",
      "outputs": [
        {
          "internalType": "uint256",
          "name": "pending",
          "type": "uint256"
        },
        {
          "internalType": "uint256",
          "name": "claimed",
          "type": "uint256"
        },
        {
          "internalType": "uint256",
          "name": "lastClaim",
          "type": "uint256"
        }
      ],
      "stateMutability": "view",
      "type": "function"
    },
    {
      "inputs": [],
      "name": "owner",
      "outputs": [
        {
          "internalType": "address",
          "name": "",
          "type": "address"
        }
      ],
      "stateMutability": "view",
      "type": "function"
    },
    {
      "inputs": [
        {
          "internalType": "address",
          "name": "token",
          "type": "address"
        }
      ],
      "name": "reactivatePool",
      "outputs": [],
      "stateMutability": "nonpayable",
      "type": "function"
    },
    {
      "inputs": [],
      "name": "renounceOwnership",
      "outputs": [],
      "stateMutability": "nonpayable",
      "type": "function"
    },
    {
      "inputs": [],
      "name": "rescueETH",
      "outputs": [],
      "stateMutability": "nonpayable",
      "type": "function"
    },
    {
      "inputs": [],
      "name": "totalDistributions",
      "outputs": [
        {
          "internalType": "uint256",
          "name": "",
          "type": "uint256"
        }
      ],
      "stateMutability": "view",
      "type": "function"
    },
    {
      "inputs": [],
      "name": "totalYieldDistributed",
      "outputs": [
        {
          "internalType": "uint256",
          "name": "",
          "type": "uint256"
        }
      ],
      "stateMutability": "view",
      "type": "function"
    },
    {
      "inputs": [
        {
          "internalType": "address",
          "name": "newOwner",
          "type": "address"
        }
      ],
      "name": "transferOwnership",
      "outputs": [],
      "stateMutability": "nonpayable",
      "type": "function"
    },
    {
      "inputs": [
        {
          "internalType": "address",
          "name": "",
          "type": "address"
        },
        {
          "internalType": "address",
          "name": "",
          "type": "address"
        }
      ],
      "name": "userYields",
      "outputs": [
        {
          "internalType": "uint256",
          "name": "pendingYield",
          "type": "uint256"
        },
        {
          "internalType": "uint256",
          "name": "claimedYield",
          "type": "uint256"
        },
        {
          "internalType": "uint256",
          "name": "lastClaim",
          "type": "uint256"
        }
      ],
      "stateMutability": "view",
      "type": "function"
    },
    {
      "inputs": [
        {
          "internalType": "address",
          "name": "",
          "type": "address"
        }
      ],
      "name": "yieldPools",
      "outputs": [
        {
          "internalType": "uint256",
          "name": "totalYield",
          "type": "uint256"
        },
        {
          "internalType": "uint256",
          "name": "distributedYield",
          "type": "uint256"
        },
        {
          "internalType": "uint256",
          "name": "lastDistribution",
          "type": "uint256"
        },
        {
          "internalType": "bool",
          "name": "isActive",
          "type": "bool"
        }
      ],
      "stateMutability": "view",
      "type": "function"
    },
    {
      "stateMutability": "payable",
      "type": "receive"
    }
  ],
  "bytecode": "0x608060405234801561001057600080fd5b50338061003757604051631e4fbdf760e01b81526000600482015260240160405180910390fd5b6100408161004a565b506001805561009a565b600080546001600160a01b038381166001600160a01b0319831681178455604051919092169283917f8be0079c531659141344cd1fd0a4f28419497f9722a3daafe3b4186f6b6457e09190a35050565b61191a806100a96000396000f3fe60806040526004361061016a5760003560e01c80639049f9d2116100d1578063e2636a2d1161008a578063f2fde38b11610064578063f2fde38b1461050f578063f303ad6e1461052f578063f872d07e1461054f578063fa8e7ed31461056457600080fd5b8063e2636a2d14610495578063e5bb7f27146104a8578063eb7ad259146104c857600080fd5b80639049f9d2146103da57806393efb28d146103fa57806397206bd514610415578063999927df1461042b578063a617e6531461044b578063d731c4f61461047b57600080fd5b806365c051061161012357806365c05106146102b65780636ff1c9bc146102d6578063715018a6146102f65780637d33e0301461030b5780638d875f811461032b5780638da5cb5b146103b257600080fd5b806301b13b0a14610176578063051c0d731461019857806306bfa9381461020657806306d22e9f14610250578063163db71b1461027d57806320800a00146102a157600080fd5b3661017157005b600080fd5b34801561018257600080fd5b506101966101913660046115a0565b6105aa565b005b3480156101a457600080fd5b506101df6101b33660046115dc565b600260208190526000918252604090912080546001820154928201546003909201549092919060ff1684565b60408051948552602085019390935291830152151560608201526080015b60405180910390f35b34801561021257600080fd5b506102266102213660046115dc565b610782565b6040805195865260208601949094529284019190915260608301521515608082015260a0016101fd565b34801561025c57600080fd5b5061027061026b36600461164a565b6107fe565b6040516101fd919061169e565b34801561028957600080fd5b5061029360055481565b6040519081526020016101fd565b3480156102ad57600080fd5b506101966108e1565b3480156102c257600080fd5b506101966102d13660046115dc565b610972565b3480156102e257600080fd5b506101966102f13660046115dc565b6109d9565b34801561030257600080fd5b50610196610ad5565b34801561031757600080fd5b506101966103263660046116e2565b610ae9565b34801561033757600080fd5b50610397610346366004611763565b6001600160a01b039182166000908152600360209081526040808320939094168252918252829020825160608101845281548082526001830154938201849052600290920154930183905292909190565b604080519384526020840192909252908201526060016101fd565b3480156103be57600080fd5b506000546040516001600160a01b0390911681526020016101fd565b3480156103e657600080fd5b506101966103f53660046115dc565b610e8f565b34801561040657600080fd5b5061029366038d7ea4c6800081565b34801561042157600080fd5b5061029360045481565b34801561043757600080fd5b506101966104463660046115dc565b610fdb565b34801561045757600080fd5b5061046b610466366004611763565b61112f565b60405190151581526020016101fd565b34801561048757600080fd5b50610293655af3107a400081565b6101966104a33660046115dc565b611165565b3480156104b457600080fd5b506101966104c33660046115dc565b611252565b3480156104d457600080fd5b506103976104e3366004611763565b600360209081526000928352604080842090915290825290208054600182015460029092015490919083565b34801561051b57600080fd5b5061019661052a3660046115dc565b6112e3565b34801561053b57600080fd5b5061019661054a366004611796565b61131e565b34801561055b57600080fd5b50610293606481565b34801561057057600080fd5b5061029361057f366004611763565b6001600160a01b03918216600090815260036020908152604080832093909416825291909152205490565b6105b26114dd565b6001600160a01b0382166105fe5760405162461bcd60e51b815260206004820152600e60248201526d24b73b30b634b2103437b63232b960911b60448201526064015b60405180910390fd5b600081116106435760405162461bcd60e51b81526020600482015260126024820152710416d6f756e74206d757374206265203e20360741b60448201526064016105f5565b6001600160a01b0383166000908152600260205260409020600381015460ff1661067f5760405162461bcd60e51b81526004016105f5906117d8565b6001810154815460009161069291611817565b9050808311156106d95760405162461bcd60e51b8152602060048201526012602482015271125b9cdd59999a58da595b9d081e5a595b1960721b60448201526064016105f5565b6001600160a01b0380861660009081526003602090815260408083209388168352929052908120805485929061071090849061182a565b925050819055508282600101600082825461072b919061182a565b90915550506040805184815260016020820152428183015290516001600160a01b038716917f43d542a8c779acf01e70c5310257891055c891e50f56d9a561ad345331beb53b919081900360600190a25050505050565b6001600160a01b038116600090815260026020818152604080842081516080810183528154808252600183015494820185905294820154928101929092526003015460ff1615156060820152839283928392839290916107e28183611817565b6040840151606090940151929a91995097509195509350915050565b606060008367ffffffffffffffff81111561081b5761081b61183d565b604051908082528060200260200182016040528015610844578160200160208202803683370190505b50905060005b848110156108d8576003600087878481811061086857610868611853565b905060200201602081019061087d91906115dc565b6001600160a01b039081168252602080830193909352604091820160009081209188168152925290205482518390839081106108bb576108bb611853565b6020908102919091010152806108d081611869565b91505061084a565b50949350505050565b6108e96114dd565b4760006108fe6000546001600160a01b031690565b6001600160a01b03168260405160006040518083038185875af1925050503d8060008114610948576040519150601f19603f3d011682016040523d82523d6000602084013e61094d565b606091505b505090508061096e5760405162461bcd60e51b81526004016105f590611882565b5050565b61097a6114dd565b6001600160a01b03811660009081526002602052604090206003015460ff166109b55760405162461bcd60e51b81526004016105f5906117d8565b6001600160a01b03166000908152600260205260409020600301805460ff19169055565b6109e16114dd565b6001600160a01b038116600090815260026020526040812060018101548154919291610a0d9190611817565b905060008111610a555760405162461bcd60e51b81526020600482015260136024820152724e6f7468696e6720746f20776974686472617760681b60448201526064016105f5565b60018201548255600080546040516001600160a01b039091169083908381818185875af1925050503d8060008114610aa9576040519150601f19603f3d011682016040523d82523d6000602084013e610aae565b606091505b5050905080610acf5760405162461bcd60e51b81526004016105f590611882565b50505050565b610add6114dd565b610ae7600061150a565b565b610af16114dd565b610af961155a565b828114610b3a5760405162461bcd60e51b815260206004820152600f60248201526e098cadccee8d040dad2e6dac2e8c6d608b1b60448201526064016105f5565b82610b775760405162461bcd60e51b815260206004820152600d60248201526c456d70747920686f6c6465727360981b60448201526064016105f5565b6064831115610bbb5760405162461bcd60e51b815260206004820152601060248201526f546f6f206d616e7920686f6c6465727360801b60448201526064016105f5565b6001600160a01b0385166000908152600260205260409020600381015460ff16610bf75760405162461bcd60e51b81526004016105f5906117d8565b60018101548154600091610c0a91611817565b905066038d7ea4c68000811015610c585760405162461bcd60e51b8152602060048201526012602482015271125b9cdd59999a58da595b9d081e5a595b1960721b60448201526064016105f5565b6000805b84811015610c9c57858582818110610c7657610c76611853565b9050602002013582610c88919061182a565b915080610c9481611869565b915050610c5c565b5060008111610ce15760405162461bcd60e51b81526020600482015260116024820152705a65726f20746f74616c20737570706c7960781b60448201526064016105f5565b6000805b87811015610de157868682818110610cff57610cff611853565b9050602002013560000315610dcf57600083888884818110610d2357610d23611853565b9050602002013586610d3591906118ab565b610d3f91906118c2565b90508015610dcd576001600160a01b038b16600090815260036020526040812082918c8c86818110610d7357610d73611853565b9050602002016020810190610d8891906115dc565b6001600160a01b03166001600160a01b031681526020019081526020016000206000016000828254610dba919061182a565b90915550610dca9050818461182a565b92505b505b80610dd981611869565b915050610ce5565b5080846001016000828254610df6919061182a565b909155505042600285015560048054829190600090610e1690849061182a565b909155505060058054906000610e2b83611869565b90915550506040805182815260208101899052428183015290516001600160a01b038b16917f43d542a8c779acf01e70c5310257891055c891e50f56d9a561ad345331beb53b919081900360600190a250505050610e8860018055565b5050505050565b610e976114dd565b6001600160a01b038116610edd5760405162461bcd60e51b815260206004820152600d60248201526c24b73b30b634b2103a37b5b2b760991b60448201526064016105f5565b6001600160a01b03811660009081526002602052604090206003015460ff1615610f375760405162461bcd60e51b815260206004820152600b60248201526a506f6f6c2065786973747360a81b60448201526064016105f5565b6040805160808101825260008082526020808301828152428486018181526001606087018181526001600160a01b038a1680885260029687905296899020975188559351908701555192850192909255516003909301805493151560ff199094169390931790925591517f641e49906554552c8c33d7e09e02d1270590f405bc1da0c7b99a9c2808abdd0591610fd09190815260200190565b60405180910390a250565b610fe361155a565b6001600160a01b038116600090815260036020908152604080832033845290915290208054655af3107a400081101561104f5760405162461bcd60e51b815260206004820152600e60248201526d416d6f756e7420746f6f206c6f7760901b60448201526064016105f5565b600080835560018301805483929061106890849061182a565b9091555050426002830155604051600090339083908381818185875af1925050503d80600081146110b5576040519150601f19603f3d011682016040523d82523d6000602084013e6110ba565b606091505b50509050806110db5760405162461bcd60e51b81526004016105f590611882565b6040805183815242602082015233916001600160a01b038716917fb10c79aa8ce52424b7676b33fe7b45ea2516b75f43f3b5c0c730e52ca8ef36a5910160405180910390a350505061112c60018055565b50565b6001600160a01b03808316600090815260036020908152604080832093851683529290522054655af3107a400011155b92915050565b600034116111aa5760405162461bcd60e51b81526020600482015260126024820152710416d6f756e74206d757374206265203e20360741b60448201526064016105f5565b6001600160a01b03811660009081526002602052604090206003015460ff166111e55760405162461bcd60e51b81526004016105f5906117d8565b6001600160a01b0381166000908152600260205260408120805434929061120d90849061182a565b9091555050604080513481524260208201526001600160a01b038316917fb24442c467cfb2dbd9bcf3c4591b5136dd8aea12ac4dbf019c5be97b1bc0a64a9101610fd0565b61125a6114dd565b6001600160a01b03811660009081526002602052604090206003015460ff16156112bc5760405162461bcd60e51b8152602060048201526013602482015272506f6f6c20616c72656164792061637469766560681b60448201526064016105f5565b6001600160a01b03166000908152600260205260409020600301805460ff19166001179055565b6112eb6114dd565b6001600160a01b03811661131557604051631e4fbdf760e01b8152600060048201526024016105f5565b61112c8161150a565b61132661155a565b6000805b8281101561142657600084848381811061134657611346611853565b905060200201602081019061135b91906115dc565b6001600160a01b03811660009081526003602090815260408083203384529091529020805491925090655af3107a400081101561139a57505050611414565b60008083556001830180548392906113b390849061182a565b90915550504260028301556113c8818661182a565b6040805183815242602082015291965033916001600160a01b038616917fb10c79aa8ce52424b7676b33fe7b45ea2516b75f43f3b5c0c730e52ca8ef36a5910160405180910390a35050505b8061141e81611869565b91505061132a565b506000811161146a5760405162461bcd60e51b815260206004820152601060248201526f4e6f7468696e6720746f20636c61696d60801b60448201526064016105f5565b604051600090339083908381818185875af1925050503d80600081146114ac576040519150601f19603f3d011682016040523d82523d6000602084013e6114b1565b606091505b50509050806114d25760405162461bcd60e51b81526004016105f590611882565b505061096e60018055565b6000546001600160a01b03163314610ae75760405163118cdaa760e01b81523360048201526024016105f5565b600080546001600160a01b038381166001600160a01b0319831681178455604051919092169283917f8be0079c531659141344cd1fd0a4f28419497f9722a3daafe3b4186f6b6457e09190a35050565b60026001540361157d57604051633ee5aeb560e01b815260040160405180910390fd5b6002600155565b80356001600160a01b038116811461159b57600080fd5b919050565b6000806000606084860312156115b557600080fd5b6115be84611584565b92506115cc60208501611584565b9150604084013590509250925092565b6000602082840312156115ee57600080fd5b6115f782611584565b9392505050565b60008083601f84011261161057600080fd5b50813567ffffffffffffffff81111561162857600080fd5b6020830191508360208260051b850101111561164357600080fd5b9250929050565b60008060006040848603121561165f57600080fd5b833567ffffffffffffffff81111561167657600080fd5b611682868287016115fe565b9094509250611695905060208501611584565b90509250925092565b6020808252825182820181905260009190848201906040850190845b818110156116d6578351835292840192918401916001016116ba565b50909695505050505050565b6000806000806000606086880312156116fa57600080fd5b61170386611584565b9450602086013567ffffffffffffffff8082111561172057600080fd5b61172c89838a016115fe565b9096509450604088013591508082111561174557600080fd5b50611752888289016115fe565b969995985093965092949392505050565b6000806040838503121561177657600080fd5b61177f83611584565b915061178d60208401611584565b90509250929050565b600080602083850312156117a957600080fd5b823567ffffffffffffffff8111156117c057600080fd5b6117cc858286016115fe565b90969095509350505050565b6020808252600f908201526e506f6f6c206e6f742061637469766560881b604082015260600190565b634e487b7160e01b600052601160045260246000fd5b8181038181111561115f5761115f611801565b8082018082111561115f5761115f611801565b634e487b7160e01b600052604160045260246000fd5b634e487b7160e01b600052603260045260246000fd5b60006001820161187b5761187b611801565b5060010190565b6020808252600f908201526e151c985b9cd9995c8819985a5b1959608a1b604082015260600190565b808202811582820484141761115f5761115f611801565b6000826118df57634e487b7160e01b600052601260045260246000fd5b50049056fea264697066735822122073cb4de73e47ce60fe25b4ae6127b5937fa29dcafa0b3fd5b3716fddad26c2c264736f6c63430008140033",
  "linkReferences": {},
  "deployedLinkReferences": {}
}